{
  "_format": "hh-sol-artifact-1",
  "contractName": "Joker",
  "sourceName": "contracts/Joker.sol",
  "abi": [
    {
      "inputs": [],
      "stateMutability": "nonpayable",
      "type": "constructor"
    },
    {
      "anonymous": false,
      "inputs": [
        {
          "indexed": false,
          "internalType": "address",
          "name": "buyer",
          "type": "address"
        },
        {
          "indexed": false,
          "internalType": "uint256",
          "name": "amount",
          "type": "uint256"
        }
      ],
      "name": "Bought",
      "type": "event"
    },
    {
      "anonymous": false,
      "inputs": [
        {
          "indexed": false,
          "internalType": "address",
          "name": "seller",
          "type": "address"
        },
        {
          "indexed": false,
          "internalType": "uint256",
          "name": "amount",
          "type": "uint256"
        }
      ],
      "name": "Sold",
      "type": "event"
    },
    {
      "inputs": [
        {
          "internalType": "address",
          "name": "",
          "type": "address"
        }
      ],
      "name": "addressToAmountFunded",
      "outputs": [
        {
          "internalType": "uint256",
          "name": "",
          "type": "uint256"
        }
      ],
      "stateMutability": "view",
      "type": "function"
    },
    {
      "inputs": [
        {
          "internalType": "address",
          "name": "account",
          "type": "address"
        }
      ],
      "name": "balanceOf",
      "outputs": [
        {
          "internalType": "uint256",
          "name": "",
          "type": "uint256"
        }
      ],
      "stateMutability": "view",
      "type": "function"
    },
    {
      "inputs": [],
      "name": "buy",
      "outputs": [],
      "stateMutability": "payable",
      "type": "function"
    },
    {
      "inputs": [],
      "name": "getContractAddress",
      "outputs": [
        {
          "internalType": "address",
          "name": "",
          "type": "address"
        }
      ],
      "stateMutability": "view",
      "type": "function"
    },
    {
      "inputs": [],
      "name": "getJokeToken",
      "outputs": [
        {
          "internalType": "contract JokeToken",
          "name": "",
          "type": "address"
        }
      ],
      "stateMutability": "view",
      "type": "function"
    },
    {
      "inputs": [],
      "name": "jokeToken",
      "outputs": [
        {
          "internalType": "contract JokeToken",
          "name": "",
          "type": "address"
        }
      ],
      "stateMutability": "view",
      "type": "function"
    },
    {
      "inputs": [
        {
          "internalType": "address",
          "name": "can1",
          "type": "address"
        },
        {
          "internalType": "uint256",
          "name": "amount",
          "type": "uint256"
        }
      ],
      "name": "newRoulette",
      "outputs": [],
      "stateMutability": "nonpayable",
      "type": "function"
    },
    {
      "inputs": [],
      "name": "owner",
      "outputs": [
        {
          "internalType": "address",
          "name": "",
          "type": "address"
        }
      ],
      "stateMutability": "view",
      "type": "function"
    },
    {
      "inputs": [
        {
          "internalType": "uint256",
          "name": "amount",
          "type": "uint256"
        }
      ],
      "name": "sell",
      "outputs": [],
      "stateMutability": "payable",
      "type": "function"
    }
  ],
  "bytecode": "0x608060405234801561001057600080fd5b5033600160006101000a81548173ffffffffffffffffffffffffffffffffffffffff021916908373ffffffffffffffffffffffffffffffffffffffff16021790555060405161005e906100bf565b604051809103906000f08015801561007a573d6000803e3d6000fd5b506000806101000a81548173ffffffffffffffffffffffffffffffffffffffff021916908373ffffffffffffffffffffffffffffffffffffffff1602179055506100cc565b61256f8061256483390190565b612489806100db6000396000f3fe608060405260043610620000925760003560e01c80637b0e697f11620000615780637b0e697f146200017f5780638da5cb5b14620001af578063a6f2ae3a14620001df578063e4849b3214620001eb578063f60362e4146200020b5762000092565b806324f84773146200009757806332a2c5d014620000c75780633e47d6f314620000f757806370a08231146200013b575b600080fd5b348015620000a457600080fd5b50620000af62000239565b604051620000be919062000ca4565b60405180910390f35b348015620000d457600080fd5b50620000df62000262565b604051620000ee919062000bf0565b60405180910390f35b3480156200010457600080fd5b506200012360048036038101906200011d919062000a30565b6200026a565b60405162000132919062000d86565b60405180910390f35b3480156200014857600080fd5b5062000167600480360381019062000161919062000a30565b62000282565b60405162000176919062000d86565b60405180910390f35b3480156200018c57600080fd5b50620001976200033b565b604051620001a6919062000ca4565b60405180910390f35b348015620001bc57600080fd5b50620001c76200035f565b604051620001d6919062000bf0565b60405180910390f35b620001e962000385565b005b62000209600480360381019062000203919062000ac9565b620005c3565b005b3480156200021857600080fd5b5062000237600480360381019062000231919062000a5c565b620008fc565b005b60008060009054906101000a900473ffffffffffffffffffffffffffffffffffffffff16905090565b600030905090565b60026020528060005260406000206000915090505481565b60008060009054906101000a900473ffffffffffffffffffffffffffffffffffffffff1673ffffffffffffffffffffffffffffffffffffffff166370a08231836040518263ffffffff1660e01b8152600401620002e0919062000bf0565b60206040518083038186803b158015620002f957600080fd5b505afa1580156200030e573d6000803e3d6000fd5b505050506040513d601f19601f8201168201806040525081019062000334919062000af5565b9050919050565b60008054906101000a900473ffffffffffffffffffffffffffffffffffffffff1681565b600160009054906101000a900473ffffffffffffffffffffffffffffffffffffffff1681565b600034905060008060009054906101000a900473ffffffffffffffffffffffffffffffffffffffff1673ffffffffffffffffffffffffffffffffffffffff166370a08231306040518263ffffffff1660e01b8152600401620003e8919062000bf0565b60206040518083038186803b1580156200040157600080fd5b505afa15801562000416573d6000803e3d6000fd5b505050506040513d601f19601f820116820180604052508101906200043c919062000af5565b9050655af3107a40008210156200048a576040517f08c379a0000000000000000000000000000000000000000000000000000000008152600401620004819062000d42565b60405180910390fd5b81811015620004d0576040517f08c379a0000000000000000000000000000000000000000000000000000000008152600401620004c79062000cfe565b60405180910390fd5b60008054906101000a900473ffffffffffffffffffffffffffffffffffffffff1673ffffffffffffffffffffffffffffffffffffffff1663a9059cbb33846040518363ffffffff1660e01b81526004016200052d92919062000c77565b602060405180830381600087803b1580156200054857600080fd5b505af11580156200055d573d6000803e3d6000fd5b505050506040513d601f19601f8201168201806040525081019062000583919062000a9d565b507fc55650ccda1011e1cdc769b1fbf546ebb8c97800b6072b49e06cd560305b1d673383604051620005b792919062000c77565b60405180910390a15050565b655af3107a40008110156200060f576040517f08c379a0000000000000000000000000000000000000000000000000000000008152600401620006069062000d64565b60405180910390fd5b60008054906101000a900473ffffffffffffffffffffffffffffffffffffffff1673ffffffffffffffffffffffffffffffffffffffff1663095ea7b330836040518363ffffffff1660e01b81526004016200066c92919062000c77565b602060405180830381600087803b1580156200068757600080fd5b505af11580156200069c573d6000803e3d6000fd5b505050506040513d601f19601f82011682018060405250810190620006c2919062000a9d565b5060008060009054906101000a900473ffffffffffffffffffffffffffffffffffffffff1673ffffffffffffffffffffffffffffffffffffffff1663dd62ed3e33306040518363ffffffff1660e01b81526004016200072392919062000c0d565b60206040518083038186803b1580156200073c57600080fd5b505afa15801562000751573d6000803e3d6000fd5b505050506040513d601f19601f8201168201806040525081019062000777919062000af5565b905081811015620007bf576040517f08c379a0000000000000000000000000000000000000000000000000000000008152600401620007b69062000d20565b60405180910390fd5b60008054906101000a900473ffffffffffffffffffffffffffffffffffffffff1673ffffffffffffffffffffffffffffffffffffffff166323b872dd3330856040518463ffffffff1660e01b81526004016200081e9392919062000c3a565b602060405180830381600087803b1580156200083957600080fd5b505af11580156200084e573d6000803e3d6000fd5b505050506040513d601f19601f8201168201806040525081019062000874919062000a9d565b503373ffffffffffffffffffffffffffffffffffffffff166108fc839081150290604051600060405180830381858888f19350505050158015620008bc573d6000803e3d6000fd5b507fae92ab4b6f8f401ead768d3273e6bb937a13e39827d19c6376e8fd4512a05d9a3383604051620008f092919062000c77565b60405180910390a15050565b60008060009054906101000a900473ffffffffffffffffffffffffffffffffffffffff1683836040516200093090620009c6565b6200093e9392919062000cc1565b604051809103906000f0801580156200095b573d6000803e3d6000fd5b5090506003819080600181540180825580915050600190039060005260206000200160009091909190916101000a81548173ffffffffffffffffffffffffffffffffffffffff021916908373ffffffffffffffffffffffffffffffffffffffff160217905550505050565b6114ef8062000f6583390190565b600081359050620009e58162000f16565b92915050565b600081519050620009fc8162000f30565b92915050565b60008135905062000a138162000f4a565b92915050565b60008151905062000a2a8162000f4a565b92915050565b60006020828403121562000a4357600080fd5b600062000a5384828501620009d4565b91505092915050565b6000806040838503121562000a7057600080fd5b600062000a8085828601620009d4565b925050602062000a938582860162000a02565b9150509250929050565b60006020828403121562000ab057600080fd5b600062000ac084828501620009eb565b91505092915050565b60006020828403121562000adc57600080fd5b600062000aec8482850162000a02565b91505092915050565b60006020828403121562000b0857600080fd5b600062000b188482850162000a19565b91505092915050565b62000b2c8162000db4565b82525050565b62000b3d8162000dfe565b82525050565b600062000b5260228362000da3565b915062000b5f8262000e26565b604082019050919050565b600062000b79601a8362000da3565b915062000b868262000e75565b602082019050919050565b600062000ba0601c8362000da3565b915062000bad8262000e9e565b602082019050919050565b600062000bc760258362000da3565b915062000bd48262000ec7565b604082019050919050565b62000bea8162000df4565b82525050565b600060208201905062000c07600083018462000b21565b92915050565b600060408201905062000c24600083018562000b21565b62000c33602083018462000b21565b9392505050565b600060608201905062000c51600083018662000b21565b62000c60602083018562000b21565b62000c6f604083018462000bdf565b949350505050565b600060408201905062000c8e600083018562000b21565b62000c9d602083018462000bdf565b9392505050565b600060208201905062000cbb600083018462000b32565b92915050565b600060608201905062000cd8600083018662000b32565b62000ce7602083018562000b21565b62000cf6604083018462000bdf565b949350505050565b6000602082019050818103600083015262000d198162000b43565b9050919050565b6000602082019050818103600083015262000d3b8162000b6a565b9050919050565b6000602082019050818103600083015262000d5d8162000b91565b9050919050565b6000602082019050818103600083015262000d7f8162000bb8565b9050919050565b600060208201905062000d9d600083018462000bdf565b92915050565b600082825260208201905092915050565b600062000dc18262000dd4565b9050919050565b60008115159050919050565b600073ffffffffffffffffffffffffffffffffffffffff82169050919050565b6000819050919050565b600062000e0b8262000e12565b9050919050565b600062000e1f8262000dd4565b9050919050565b7f496e73756666696369656e7420746f6b656e20696e207468652072657365727660008201527f652e000000000000000000000000000000000000000000000000000000000000602082015250565b7f436865636b2074686520746f6b656e20616c6c6f77616e63652e000000000000600082015250565b7f4d696e696d756d207370656e64206f6620302e30303031204554482e00000000600082015250565b7f596f75206e65656420746f2073656c6c206174206c6561737420302e3030303160008201527f204a4f542e000000000000000000000000000000000000000000000000000000602082015250565b62000f218162000db4565b811462000f2d57600080fd5b50565b62000f3b8162000dc8565b811462000f4757600080fd5b50565b62000f558162000df4565b811462000f6157600080fd5b5056fe60806040526064600560006101000a81548160ff021916908360ff1602179055506064600560016101000a81548160ff021916908360ff1602179055503480156200004957600080fd5b50604051620014ef380380620014ef83398181016040528101906200006f919062000145565b826000806101000a81548173ffffffffffffffffffffffffffffffffffffffff021916908373ffffffffffffffffffffffffffffffffffffffff16021790555081600260006101000a81548173ffffffffffffffffffffffffffffffffffffffff021916908373ffffffffffffffffffffffffffffffffffffffff160217905550806004819055505050506200023b565b6000815190506200011181620001ed565b92915050565b600081519050620001288162000207565b92915050565b6000815190506200013f8162000221565b92915050565b6000806000606084860312156200015b57600080fd5b60006200016b8682870162000117565b93505060206200017e8682870162000100565b925050604062000191868287016200012e565b9150509250925092565b6000620001a882620001c3565b9050919050565b6000620001bc826200019b565b9050919050565b600073ffffffffffffffffffffffffffffffffffffffff82169050919050565b6000819050919050565b620001f8816200019b565b81146200020457600080fd5b50565b6200021281620001af565b81146200021e57600080fd5b50565b6200022c81620001e3565b81146200023857600080fd5b50565b6112a4806200024b6000396000f3fe608060405234801561001057600080fd5b50600436106100cf5760003560e01c80637b0e697f1161008c578063b3b8b7d711610066578063b3b8b7d7146101cc578063be71248a146101ea578063dba36843146101f4578063f60dbf8914610212576100cf565b80637b0e697f146101865780638e7ea5b2146101a457806393e84cd9146101c2576100cf565b806301243fce146100d457806317ca5481146100f257806350adcdb7146101105780635b57014c1461011a57806360d1081314610138578063757fff2414610156575b600080fd5b6100dc61022e565b6040516100e99190610e36565b60405180910390f35b6100fa610254565b6040516101079190610fab565b60405180910390f35b610118610267565b005b6101226104c1565b60405161012f9190610e36565b60405180910390f35b6101406104e7565b60405161014d9190610fab565b60405180910390f35b610170600480360381019061016b9190610ce4565b6104fa565b60405161017d9190610fab565b60405180910390f35b61018e61051a565b60405161019b9190610ef5565b60405180910390f35b6101ac61053e565b6040516101b99190610e36565b60405180910390f35b6101ca610850565b005b6101d46108b1565b6040516101e19190610eda565b60405180910390f35b6101f261090a565b005b6101fc610c0a565b6040516102099190610f90565b60405180910390f35b61022c60048036038101906102279190610ce4565b610c10565b005b600260009054906101000a900473ffffffffffffffffffffffffffffffffffffffff1681565b600560019054906101000a900460ff1681565b60008054906101000a900473ffffffffffffffffffffffffffffffffffffffff1673ffffffffffffffffffffffffffffffffffffffff1663095ea7b3306004546040518363ffffffff1660e01b81526004016102c4929190610eb1565b602060405180830381600087803b1580156102de57600080fd5b505af11580156102f2573d6000803e3d6000fd5b505050506040513d601f19601f820116820180604052508101906103169190610d0d565b5060008060009054906101000a900473ffffffffffffffffffffffffffffffffffffffff1673ffffffffffffffffffffffffffffffffffffffff1663dd62ed3e33306040518363ffffffff1660e01b8152600401610375929190610e51565b60206040518083038186803b15801561038d57600080fd5b505afa1580156103a1573d6000803e3d6000fd5b505050506040513d601f19601f820116820180604052508101906103c59190610d36565b905060045481101561040c576040517f08c379a000000000000000000000000000000000000000000000000000000000815260040161040390610f70565b60405180910390fd5b60008054906101000a900473ffffffffffffffffffffffffffffffffffffffff1673ffffffffffffffffffffffffffffffffffffffff166323b872dd33306004546040518463ffffffff1660e01b815260040161046b93929190610e7a565b602060405180830381600087803b15801561048557600080fd5b505af1158015610499573d6000803e3d6000fd5b505050506040513d601f19601f820116820180604052508101906104bd9190610d0d565b5050565b600360009054906101000a900473ffffffffffffffffffffffffffffffffffffffff1681565b600560009054906101000a900460ff1681565b60016020528060005260406000206000915054906101000a900460ff1681565b60008054906101000a900473ffffffffffffffffffffffffffffffffffffffff1681565b60006064600560009054906101000a900460ff1660ff161415610596576040517f08c379a000000000000000000000000000000000000000000000000000000000815260040161058d90610f10565b60405180910390fd5b6064600560019054906101000a900460ff1660ff1614156105ec576040517f08c379a00000000000000000000000000000000000000000000000000000000081526004016105e390610f30565b60405180910390fd5b60008060016000600260009054906101000a900473ffffffffffffffffffffffffffffffffffffffff1673ffffffffffffffffffffffffffffffffffffffff1673ffffffffffffffffffffffffffffffffffffffff16815260200190815260200160002060009054906101000a900460ff1660ff16146106da5760016000600260009054906101000a900473ffffffffffffffffffffffffffffffffffffffff1673ffffffffffffffffffffffffffffffffffffffff1673ffffffffffffffffffffffffffffffffffffffff16815260200190815260200160002060009054906101000a900460ff166106dd565b60255b905060008060016000600360009054906101000a900473ffffffffffffffffffffffffffffffffffffffff1673ffffffffffffffffffffffffffffffffffffffff1673ffffffffffffffffffffffffffffffffffffffff16815260200190815260200160002060009054906101000a900460ff1660ff16146107cd5760016000600360009054906101000a900473ffffffffffffffffffffffffffffffffffffffff1673ffffffffffffffffffffffffffffffffffffffff1673ffffffffffffffffffffffffffffffffffffffff16815260200190815260200160002060009054906101000a900460ff166107d0565b60255b90508060ff168260ff16111561080c57600260009054906101000a900473ffffffffffffffffffffffffffffffffffffffff169250505061084d565b8160ff168160ff16111561084657600360009054906101000a900473ffffffffffffffffffffffffffffffffffffffff169250505061084d565b6000925050505b90565b610858610c9c565b600160003373ffffffffffffffffffffffffffffffffffffffff1673ffffffffffffffffffffffffffffffffffffffff16815260200190815260200160002060006101000a81548160ff021916908360ff160217905550565b60008073ffffffffffffffffffffffffffffffffffffffff16600360009054906101000a900473ffffffffffffffffffffffffffffffffffffffff1673ffffffffffffffffffffffffffffffffffffffff161415905090565b600061091461053e565b9050600073ffffffffffffffffffffffffffffffffffffffff168173ffffffffffffffffffffffffffffffffffffffff161415610988576064600560006101000a81548160ff021916908360ff1602179055506064600560016101000a81548160ff021916908360ff160217905550610c07565b60006064605f600260045461099d9190611008565b6109a79190611008565b6109b19190610fd7565b905060008054906101000a900473ffffffffffffffffffffffffffffffffffffffff1673ffffffffffffffffffffffffffffffffffffffff1663095ea7b330836040518363ffffffff1660e01b8152600401610a0e929190610eb1565b602060405180830381600087803b158015610a2857600080fd5b505af1158015610a3c573d6000803e3d6000fd5b505050506040513d601f19601f82011682018060405250810190610a609190610d0d565b5060008060009054906101000a900473ffffffffffffffffffffffffffffffffffffffff1673ffffffffffffffffffffffffffffffffffffffff1663dd62ed3e33306040518363ffffffff1660e01b8152600401610abf929190610e51565b60206040518083038186803b158015610ad757600080fd5b505afa158015610aeb573d6000803e3d6000fd5b505050506040513d601f19601f82011682018060405250810190610b0f9190610d36565b905081811015610b54576040517f08c379a0000000000000000000000000000000000000000000000000000000008152600401610b4b90610f70565b60405180910390fd5b60008054906101000a900473ffffffffffffffffffffffffffffffffffffffff1673ffffffffffffffffffffffffffffffffffffffff166323b872dd3085856040518463ffffffff1660e01b8152600401610bb193929190610e7a565b602060405180830381600087803b158015610bcb57600080fd5b505af1158015610bdf573d6000803e3d6000fd5b505050506040513d601f19601f82011682018060405250810190610c039190610d0d565b5050505b50565b60045481565b610c186108b1565b15610c58576040517f08c379a0000000000000000000000000000000000000000000000000000000008152600401610c4f90610f50565b60405180910390fd5b80600360006101000a81548173ffffffffffffffffffffffffffffffffffffffff021916908373ffffffffffffffffffffffffffffffffffffffff16021790555050565b60006024905090565b600081359050610cb481611229565b92915050565b600081519050610cc981611240565b92915050565b600081519050610cde81611257565b92915050565b600060208284031215610cf657600080fd5b6000610d0484828501610ca5565b91505092915050565b600060208284031215610d1f57600080fd5b6000610d2d84828501610cba565b91505092915050565b600060208284031215610d4857600080fd5b6000610d5684828501610ccf565b91505092915050565b610d6881611062565b82525050565b610d7781611074565b82525050565b610d86816110b7565b82525050565b6000610d99602483610fc6565b9150610da482611139565b604082019050919050565b6000610dbc602483610fc6565b9150610dc782611188565b604082019050919050565b6000610ddf601983610fc6565b9150610dea826111d7565b602082019050919050565b6000610e02601a83610fc6565b9150610e0d82611200565b602082019050919050565b610e21816110a0565b82525050565b610e30816110aa565b82525050565b6000602082019050610e4b6000830184610d5f565b92915050565b6000604082019050610e666000830185610d5f565b610e736020830184610d5f565b9392505050565b6000606082019050610e8f6000830186610d5f565b610e9c6020830185610d5f565b610ea96040830184610e18565b949350505050565b6000604082019050610ec66000830185610d5f565b610ed36020830184610e18565b9392505050565b6000602082019050610eef6000830184610d6e565b92915050565b6000602082019050610f0a6000830184610d7d565b92915050565b60006020820190508181036000830152610f2981610d8c565b9050919050565b60006020820190508181036000830152610f4981610daf565b9050919050565b60006020820190508181036000830152610f6981610dd2565b9050919050565b60006020820190508181036000830152610f8981610df5565b9050919050565b6000602082019050610fa56000830184610e18565b92915050565b6000602082019050610fc06000830184610e27565b92915050565b600082825260208201905092915050565b6000610fe2826110a0565b9150610fed836110a0565b925082610ffd57610ffc61110a565b5b828204905092915050565b6000611013826110a0565b915061101e836110a0565b9250817fffffffffffffffffffffffffffffffffffffffffffffffffffffffffffffffff0483118215151615611057576110566110db565b5b828202905092915050565b600061106d82611080565b9050919050565b60008115159050919050565b600073ffffffffffffffffffffffffffffffffffffffff82169050919050565b6000819050919050565b600060ff82169050919050565b60006110c2826110c9565b9050919050565b60006110d482611080565b9050919050565b7f4e487b7100000000000000000000000000000000000000000000000000000000600052601160045260246000fd5b7f4e487b7100000000000000000000000000000000000000000000000000000000600052601260045260246000fd5b7f43616e64696461746520312068617665206e6f74207370756e2074686520776860008201527f65656c2e00000000000000000000000000000000000000000000000000000000602082015250565b7f43616e64696461746520322068617665206e6f74207370756e2074686520776860008201527f65656c2e00000000000000000000000000000000000000000000000000000000602082015250565b7f436f6d70657469746f7220616c72656164792065786973742e00000000000000600082015250565b7f436865636b2074686520746f6b656e20616c6c6f77616e63652e000000000000600082015250565b61123281611062565b811461123d57600080fd5b50565b61124981611074565b811461125457600080fd5b50565b611260816110a0565b811461126b57600080fd5b5056fea264697066735822122039a94aa5339a06ec823801c534657e55076af24e4ce4f8507881a291c8d064f964736f6c63430008040033a264697066735822122044003a63ee249ce4e5ecd90e46063d53cb2d80fb2221b1a318d4d41dfd073a7d64736f6c6343000804003360806040523480156200001157600080fd5b506040518060400160405280600981526020017f4a6f6b65546f6b656e00000000000000000000000000000000000000000000008152506040518060400160405280600381526020017f4a4f540000000000000000000000000000000000000000000000000000000000815250816003908051906020019062000096929190620001a6565b508060049080519060200190620000af929190620001a6565b505050620000d2620000c6620000d860201b60201c565b620000e060201b60201c565b620002bb565b600033905090565b6000600560009054906101000a900473ffffffffffffffffffffffffffffffffffffffff16905081600560006101000a81548173ffffffffffffffffffffffffffffffffffffffff021916908373ffffffffffffffffffffffffffffffffffffffff1602179055508173ffffffffffffffffffffffffffffffffffffffff168173ffffffffffffffffffffffffffffffffffffffff167f8be0079c531659141344cd1fd0a4f28419497f9722a3daafe3b4186f6b6457e060405160405180910390a35050565b828054620001b49062000256565b90600052602060002090601f016020900481019282620001d8576000855562000224565b82601f10620001f357805160ff191683800117855562000224565b8280016001018555821562000224579182015b828111156200022357825182559160200191906001019062000206565b5b50905062000233919062000237565b5090565b5b808211156200025257600081600090555060010162000238565b5090565b600060028204905060018216806200026f57607f821691505b602082108114156200028657620002856200028c565b5b50919050565b7f4e487b7100000000000000000000000000000000000000000000000000000000600052602260045260246000fd5b6122a480620002cb6000396000f3fe60806040526004361061011f5760003560e01c806370a08231116100a0578063a457c2d711610064578063a457c2d7146103d5578063a9059cbb14610412578063dd62ed3e1461044f578063f088d5471461048c578063f2fde38b146104a85761011f565b806370a0823114610302578063715018a61461033f57806379cc6790146103565780638da5cb5b1461037f57806395d89b41146103aa5761011f565b806339509351116100e7578063395093511461021f57806340c10f191461025c57806342966c68146102855780636c197ff5146102ae5780636de9f32b146102d75761011f565b806306fdde0314610124578063095ea7b31461014f57806318160ddd1461018c57806323b872dd146101b7578063313ce567146101f4575b600080fd5b34801561013057600080fd5b506101396104d1565b6040516101469190611a0d565b60405180910390f35b34801561015b57600080fd5b50610176600480360381019061017191906116cd565b610563565b60405161018391906119f2565b60405180910390f35b34801561019857600080fd5b506101a1610586565b6040516101ae9190611c2f565b60405180910390f35b3480156101c357600080fd5b506101de60048036038101906101d9919061167e565b610590565b6040516101eb91906119f2565b60405180910390f35b34801561020057600080fd5b506102096105bf565b6040516102169190611c4a565b60405180910390f35b34801561022b57600080fd5b50610246600480360381019061024191906116cd565b6105c8565b60405161025391906119f2565b60405180910390f35b34801561026857600080fd5b50610283600480360381019061027e91906116cd565b610672565b005b34801561029157600080fd5b506102ac60048036038101906102a79190611709565b6106fc565b005b3480156102ba57600080fd5b506102d560048036038101906102d091906116cd565b610710565b005b3480156102e357600080fd5b506102ec610857565b6040516102f99190611c2f565b60405180910390f35b34801561030e57600080fd5b5061032960048036038101906103249190611619565b610861565b6040516103369190611c2f565b60405180910390f35b34801561034b57600080fd5b506103546108a9565b005b34801561036257600080fd5b5061037d600480360381019061037891906116cd565b610931565b005b34801561038b57600080fd5b50610394610951565b6040516103a191906119d7565b60405180910390f35b3480156103b657600080fd5b506103bf61097b565b6040516103cc9190611a0d565b60405180910390f35b3480156103e157600080fd5b506103fc60048036038101906103f791906116cd565b610a0d565b60405161040991906119f2565b60405180910390f35b34801561041e57600080fd5b50610439600480360381019061043491906116cd565b610af7565b60405161044691906119f2565b60405180910390f35b34801561045b57600080fd5b5061047660048036038101906104719190611642565b610b1a565b6040516104839190611c2f565b60405180910390f35b6104a660048036038101906104a19190611619565b610ba1565b005b3480156104b457600080fd5b506104cf60048036038101906104ca9190611619565b610c10565b005b6060600380546104e090611d93565b80601f016020809104026020016040519081016040528092919081815260200182805461050c90611d93565b80156105595780601f1061052e57610100808354040283529160200191610559565b820191906000526020600020905b81548152906001019060200180831161053c57829003601f168201915b5050505050905090565b60008061056e610d08565b905061057b818585610d10565b600191505092915050565b6000600254905090565b60008061059b610d08565b90506105a8858285610edb565b6105b3858585610f67565b60019150509392505050565b60006012905090565b6000806105d3610d08565b9050610667818585600160008673ffffffffffffffffffffffffffffffffffffffff1673ffffffffffffffffffffffffffffffffffffffff16815260200190815260200160002060008973ffffffffffffffffffffffffffffffffffffffff1673ffffffffffffffffffffffffffffffffffffffff168152602001908152602001600020546106629190611c81565b610d10565b600191505092915050565b61067a610d08565b73ffffffffffffffffffffffffffffffffffffffff16610698610951565b73ffffffffffffffffffffffffffffffffffffffff16146106ee576040517f08c379a00000000000000000000000000000000000000000000000000000000081526004016106e590611b4f565b60405180910390fd5b6106f882826111e8565b5050565b61070d610707610d08565b82611348565b50565b655af3107a4000811015610759576040517f08c379a000000000000000000000000000000000000000000000000000000000815260040161075090611aaf565b60405180910390fd5b8061076383610861565b10156107a4576040517f08c379a000000000000000000000000000000000000000000000000000000000815260040161079b90611a6f565b60405180910390fd5b8060065410156107e9576040517f08c379a00000000000000000000000000000000000000000000000000000000081526004016107e090611a4f565b60405180910390fd5b6107f38282611348565b80600660008282546108059190611cd7565b925050819055508173ffffffffffffffffffffffffffffffffffffffff166108fc829081150290604051600060405180830381858888f19350505050158015610852573d6000803e3d6000fd5b505050565b6000600654905090565b60008060008373ffffffffffffffffffffffffffffffffffffffff1673ffffffffffffffffffffffffffffffffffffffff168152602001908152602001600020549050919050565b6108b1610d08565b73ffffffffffffffffffffffffffffffffffffffff166108cf610951565b73ffffffffffffffffffffffffffffffffffffffff1614610925576040517f08c379a000000000000000000000000000000000000000000000000000000000815260040161091c90611b4f565b60405180910390fd5b61092f600061151f565b565b6109438261093d610d08565b83610edb565b61094d8282611348565b5050565b6000600560009054906101000a900473ffffffffffffffffffffffffffffffffffffffff16905090565b60606004805461098a90611d93565b80601f01602080910402602001604051908101604052809291908181526020018280546109b690611d93565b8015610a035780601f106109d857610100808354040283529160200191610a03565b820191906000526020600020905b8154815290600101906020018083116109e657829003601f168201915b5050505050905090565b600080610a18610d08565b90506000600160008373ffffffffffffffffffffffffffffffffffffffff1673ffffffffffffffffffffffffffffffffffffffff16815260200190815260200160002060008673ffffffffffffffffffffffffffffffffffffffff1673ffffffffffffffffffffffffffffffffffffffff16815260200190815260200160002054905083811015610ade576040517f08c379a0000000000000000000000000000000000000000000000000000000008152600401610ad590611bef565b60405180910390fd5b610aeb8286868403610d10565b60019250505092915050565b600080610b02610d08565b9050610b0f818585610f67565b600191505092915050565b6000600160008473ffffffffffffffffffffffffffffffffffffffff1673ffffffffffffffffffffffffffffffffffffffff16815260200190815260200160002060008373ffffffffffffffffffffffffffffffffffffffff1673ffffffffffffffffffffffffffffffffffffffff16815260200190815260200160002054905092915050565b655af3107a4000341015610bea576040517f08c379a0000000000000000000000000000000000000000000000000000000008152600401610be190611bcf565b60405180910390fd5b610bf481346111e8565b3460066000828254610c069190611c81565b9250508190555050565b610c18610d08565b73ffffffffffffffffffffffffffffffffffffffff16610c36610951565b73ffffffffffffffffffffffffffffffffffffffff1614610c8c576040517f08c379a0000000000000000000000000000000000000000000000000000000008152600401610c8390611b4f565b60405180910390fd5b600073ffffffffffffffffffffffffffffffffffffffff168173ffffffffffffffffffffffffffffffffffffffff161415610cfc576040517f08c379a0000000000000000000000000000000000000000000000000000000008152600401610cf390611acf565b60405180910390fd5b610d058161151f565b50565b600033905090565b600073ffffffffffffffffffffffffffffffffffffffff168373ffffffffffffffffffffffffffffffffffffffff161415610d80576040517f08c379a0000000000000000000000000000000000000000000000000000000008152600401610d7790611baf565b60405180910390fd5b600073ffffffffffffffffffffffffffffffffffffffff168273ffffffffffffffffffffffffffffffffffffffff161415610df0576040517f08c379a0000000000000000000000000000000000000000000000000000000008152600401610de790611aef565b60405180910390fd5b80600160008573ffffffffffffffffffffffffffffffffffffffff1673ffffffffffffffffffffffffffffffffffffffff16815260200190815260200160002060008473ffffffffffffffffffffffffffffffffffffffff1673ffffffffffffffffffffffffffffffffffffffff168152602001908152602001600020819055508173ffffffffffffffffffffffffffffffffffffffff168373ffffffffffffffffffffffffffffffffffffffff167f8c5be1e5ebec7d5bd14f71427d1e84f3dd0314c0f7b2291e5b200ac8c7c3b92583604051610ece9190611c2f565b60405180910390a3505050565b6000610ee78484610b1a565b90507fffffffffffffffffffffffffffffffffffffffffffffffffffffffffffffffff8114610f615781811015610f53576040517f08c379a0000000000000000000000000000000000000000000000000000000008152600401610f4a90611b0f565b60405180910390fd5b610f608484848403610d10565b5b50505050565b600073ffffffffffffffffffffffffffffffffffffffff168373ffffffffffffffffffffffffffffffffffffffff161415610fd7576040517f08c379a0000000000000000000000000000000000000000000000000000000008152600401610fce90611b8f565b60405180910390fd5b600073ffffffffffffffffffffffffffffffffffffffff168273ffffffffffffffffffffffffffffffffffffffff161415611047576040517f08c379a000000000000000000000000000000000000000000000000000000000815260040161103e90611a2f565b60405180910390fd5b6110528383836115e5565b60008060008573ffffffffffffffffffffffffffffffffffffffff1673ffffffffffffffffffffffffffffffffffffffff168152602001908152602001600020549050818110156110d8576040517f08c379a00000000000000000000000000000000000000000000000000000000081526004016110cf90611b2f565b60405180910390fd5b8181036000808673ffffffffffffffffffffffffffffffffffffffff1673ffffffffffffffffffffffffffffffffffffffff16815260200190815260200160002081905550816000808573ffffffffffffffffffffffffffffffffffffffff1673ffffffffffffffffffffffffffffffffffffffff168152602001908152602001600020600082825461116b9190611c81565b925050819055508273ffffffffffffffffffffffffffffffffffffffff168473ffffffffffffffffffffffffffffffffffffffff167fddf252ad1be2c89b69c2b068fc378daa952ba7f163c4a11628f55a4df523b3ef846040516111cf9190611c2f565b60405180910390a36111e28484846115ea565b50505050565b600073ffffffffffffffffffffffffffffffffffffffff168273ffffffffffffffffffffffffffffffffffffffff161415611258576040517f08c379a000000000000000000000000000000000000000000000000000000000815260040161124f90611c0f565b60405180910390fd5b611264600083836115e5565b80600260008282546112769190611c81565b92505081905550806000808473ffffffffffffffffffffffffffffffffffffffff1673ffffffffffffffffffffffffffffffffffffffff16815260200190815260200160002060008282546112cb9190611c81565b925050819055508173ffffffffffffffffffffffffffffffffffffffff16600073ffffffffffffffffffffffffffffffffffffffff167fddf252ad1be2c89b69c2b068fc378daa952ba7f163c4a11628f55a4df523b3ef836040516113309190611c2f565b60405180910390a3611344600083836115ea565b5050565b600073ffffffffffffffffffffffffffffffffffffffff168273ffffffffffffffffffffffffffffffffffffffff1614156113b8576040517f08c379a00000000000000000000000000000000000000000000000000000000081526004016113af90611b6f565b60405180910390fd5b6113c4826000836115e5565b60008060008473ffffffffffffffffffffffffffffffffffffffff1673ffffffffffffffffffffffffffffffffffffffff1681526020019081526020016000205490508181101561144a576040517f08c379a000000000000000000000000000000000000000000000000000000000815260040161144190611a8f565b60405180910390fd5b8181036000808573ffffffffffffffffffffffffffffffffffffffff1673ffffffffffffffffffffffffffffffffffffffff1681526020019081526020016000208190555081600260008282546114a19190611cd7565b92505081905550600073ffffffffffffffffffffffffffffffffffffffff168373ffffffffffffffffffffffffffffffffffffffff167fddf252ad1be2c89b69c2b068fc378daa952ba7f163c4a11628f55a4df523b3ef846040516115069190611c2f565b60405180910390a361151a836000846115ea565b505050565b6000600560009054906101000a900473ffffffffffffffffffffffffffffffffffffffff16905081600560006101000a81548173ffffffffffffffffffffffffffffffffffffffff021916908373ffffffffffffffffffffffffffffffffffffffff1602179055508173ffffffffffffffffffffffffffffffffffffffff168173ffffffffffffffffffffffffffffffffffffffff167f8be0079c531659141344cd1fd0a4f28419497f9722a3daafe3b4186f6b6457e060405160405180910390a35050565b505050565b505050565b6000813590506115fe81612240565b92915050565b60008135905061161381612257565b92915050565b60006020828403121561162b57600080fd5b6000611639848285016115ef565b91505092915050565b6000806040838503121561165557600080fd5b6000611663858286016115ef565b9250506020611674858286016115ef565b9150509250929050565b60008060006060848603121561169357600080fd5b60006116a1868287016115ef565b93505060206116b2868287016115ef565b92505060406116c386828701611604565b9150509250925092565b600080604083850312156116e057600080fd5b60006116ee858286016115ef565b92505060206116ff85828601611604565b9150509250929050565b60006020828403121561171b57600080fd5b600061172984828501611604565b91505092915050565b61173b81611d0b565b82525050565b61174a81611d1d565b82525050565b600061175b82611c65565b6117658185611c70565b9350611775818560208601611d60565b61177e81611e23565b840191505092915050565b6000611796602383611c70565b91506117a182611e34565b604082019050919050565b60006117b9602283611c70565b91506117c482611e83565b604082019050919050565b60006117dc601e83611c70565b91506117e782611ed2565b602082019050919050565b60006117ff602283611c70565b915061180a82611efb565b604082019050919050565b6000611822601c83611c70565b915061182d82611f4a565b602082019050919050565b6000611845602683611c70565b915061185082611f73565b604082019050919050565b6000611868602283611c70565b915061187382611fc2565b604082019050919050565b600061188b601d83611c70565b915061189682612011565b602082019050919050565b60006118ae602683611c70565b91506118b98261203a565b604082019050919050565b60006118d1602083611c70565b91506118dc82612089565b602082019050919050565b60006118f4602183611c70565b91506118ff826120b2565b604082019050919050565b6000611917602583611c70565b915061192282612101565b604082019050919050565b600061193a602483611c70565b915061194582612150565b604082019050919050565b600061195d601f83611c70565b91506119688261219f565b602082019050919050565b6000611980602583611c70565b915061198b826121c8565b604082019050919050565b60006119a3601f83611c70565b91506119ae82612217565b602082019050919050565b6119c281611d49565b82525050565b6119d181611d53565b82525050565b60006020820190506119ec6000830184611732565b92915050565b6000602082019050611a076000830184611741565b92915050565b60006020820190508181036000830152611a278184611750565b905092915050565b60006020820190508181036000830152611a4881611789565b9050919050565b60006020820190508181036000830152611a68816117ac565b9050919050565b60006020820190508181036000830152611a88816117cf565b9050919050565b60006020820190508181036000830152611aa8816117f2565b9050919050565b60006020820190508181036000830152611ac881611815565b9050919050565b60006020820190508181036000830152611ae881611838565b9050919050565b60006020820190508181036000830152611b088161185b565b9050919050565b60006020820190508181036000830152611b288161187e565b9050919050565b60006020820190508181036000830152611b48816118a1565b9050919050565b60006020820190508181036000830152611b68816118c4565b9050919050565b60006020820190508181036000830152611b88816118e7565b9050919050565b60006020820190508181036000830152611ba88161190a565b9050919050565b60006020820190508181036000830152611bc88161192d565b9050919050565b60006020820190508181036000830152611be881611950565b9050919050565b60006020820190508181036000830152611c0881611973565b9050919050565b60006020820190508181036000830152611c2881611996565b9050919050565b6000602082019050611c4460008301846119b9565b92915050565b6000602082019050611c5f60008301846119c8565b92915050565b600081519050919050565b600082825260208201905092915050565b6000611c8c82611d49565b9150611c9783611d49565b9250827fffffffffffffffffffffffffffffffffffffffffffffffffffffffffffffffff03821115611ccc57611ccb611dc5565b5b828201905092915050565b6000611ce282611d49565b9150611ced83611d49565b925082821015611d0057611cff611dc5565b5b828203905092915050565b6000611d1682611d29565b9050919050565b60008115159050919050565b600073ffffffffffffffffffffffffffffffffffffffff82169050919050565b6000819050919050565b600060ff82169050919050565b60005b83811015611d7e578082015181840152602081019050611d63565b83811115611d8d576000848401525b50505050565b60006002820490506001821680611dab57607f821691505b60208210811415611dbf57611dbe611df4565b5b50919050565b7f4e487b7100000000000000000000000000000000000000000000000000000000600052601160045260246000fd5b7f4e487b7100000000000000000000000000000000000000000000000000000000600052602260045260246000fd5b6000601f19601f8301169050919050565b7f45524332303a207472616e7366657220746f20746865207a65726f206164647260008201527f6573730000000000000000000000000000000000000000000000000000000000602082015250565b7f496e73756666696369656e742066756e647320696e207468652072657365727660008201527f652e000000000000000000000000000000000000000000000000000000000000602082015250565b7f496e73756666696369656e7420746f6b656e7320696e2077616c6c65742e0000600082015250565b7f45524332303a206275726e20616d6f756e7420657863656564732062616c616e60008201527f6365000000000000000000000000000000000000000000000000000000000000602082015250565b7f4d696e696d756d2073616c6573206f6620302e30303031204a4f542e00000000600082015250565b7f4f776e61626c653a206e6577206f776e657220697320746865207a65726f206160008201527f6464726573730000000000000000000000000000000000000000000000000000602082015250565b7f45524332303a20617070726f766520746f20746865207a65726f20616464726560008201527f7373000000000000000000000000000000000000000000000000000000000000602082015250565b7f45524332303a20696e73756666696369656e7420616c6c6f77616e6365000000600082015250565b7f45524332303a207472616e7366657220616d6f756e742065786365656473206260008201527f616c616e63650000000000000000000000000000000000000000000000000000602082015250565b7f4f776e61626c653a2063616c6c6572206973206e6f7420746865206f776e6572600082015250565b7f45524332303a206275726e2066726f6d20746865207a65726f2061646472657360008201527f7300000000000000000000000000000000000000000000000000000000000000602082015250565b7f45524332303a207472616e736665722066726f6d20746865207a65726f20616460008201527f6472657373000000000000000000000000000000000000000000000000000000602082015250565b7f45524332303a20617070726f76652066726f6d20746865207a65726f2061646460008201527f7265737300000000000000000000000000000000000000000000000000000000602082015250565b7f4d696e696d756d207075726368617365206f6620302e30303031204a4f542e00600082015250565b7f45524332303a2064656372656173656420616c6c6f77616e63652062656c6f7760008201527f207a65726f000000000000000000000000000000000000000000000000000000602082015250565b7f45524332303a206d696e7420746f20746865207a65726f206164647265737300600082015250565b61224981611d0b565b811461225457600080fd5b50565b61226081611d49565b811461226b57600080fd5b5056fea264697066735822122016f4b1779a8eab10fcb415576f752fb89f0ea701f08a18bda631d9dc7f1a2d9364736f6c63430008040033",
  "linkReferences": {},
  "deployedLinkReferences": {}
}