{
    "_format": "hh-sol-artifact-1",
    "contractName": "Joker",
    "sourceName": "contracts/Joker.sol",
    "abi": [
        {
            "inputs": [],
            "stateMutability": "nonpayable",
            "type": "constructor"
        },
        {
            "anonymous": false,
            "inputs": [
                {
                    "indexed": false,
                    "internalType": "address",
                    "name": "buyer",
                    "type": "address"
                },
                {
                    "indexed": false,
                    "internalType": "uint256",
                    "name": "amount",
                    "type": "uint256"
                }
            ],
            "name": "Bought",
            "type": "event"
        },
        {
            "anonymous": false,
            "inputs": [
                {
                    "indexed": false,
                    "internalType": "address",
                    "name": "seller",
                    "type": "address"
                },
                {
                    "indexed": false,
                    "internalType": "uint256",
                    "name": "amount",
                    "type": "uint256"
                }
            ],
            "name": "Sold",
            "type": "event"
        },
        {
            "inputs": [
                {
                    "internalType": "address",
                    "name": "",
                    "type": "address"
                }
            ],
            "name": "addressToAmountFunded",
            "outputs": [
                {
                    "internalType": "uint256",
                    "name": "",
                    "type": "uint256"
                }
            ],
            "stateMutability": "view",
            "type": "function"
        },
        {
            "inputs": [
                {
                    "internalType": "address",
                    "name": "account",
                    "type": "address"
                }
            ],
            "name": "balanceOf",
            "outputs": [
                {
                    "internalType": "uint256",
                    "name": "",
                    "type": "uint256"
                }
            ],
            "stateMutability": "view",
            "type": "function"
        },
        {
            "inputs": [],
            "name": "buy",
            "outputs": [],
            "stateMutability": "payable",
            "type": "function"
        },
        {
            "inputs": [],
            "name": "getContractAddress",
            "outputs": [
                {
                    "internalType": "address",
                    "name": "",
                    "type": "address"
                }
            ],
            "stateMutability": "view",
            "type": "function"
        },
        {
            "inputs": [],
            "name": "getJokeToken",
            "outputs": [
                {
                    "internalType": "contract JokeToken",
                    "name": "",
                    "type": "address"
                }
            ],
            "stateMutability": "view",
            "type": "function"
        },
        {
            "inputs": [],
            "name": "jokeToken",
            "outputs": [
                {
                    "internalType": "contract JokeToken",
                    "name": "",
                    "type": "address"
                }
            ],
            "stateMutability": "view",
            "type": "function"
        },
        {
            "inputs": [
                {
                    "internalType": "address",
                    "name": "can1",
                    "type": "address"
                },
                {
                    "internalType": "uint256",
                    "name": "amount",
                    "type": "uint256"
                }
            ],
            "name": "newRoulette",
            "outputs": [],
            "stateMutability": "nonpayable",
            "type": "function"
        },
        {
            "inputs": [],
            "name": "owner",
            "outputs": [
                {
                    "internalType": "address",
                    "name": "",
                    "type": "address"
                }
            ],
            "stateMutability": "view",
            "type": "function"
        },
        {
            "inputs": [
                {
                    "internalType": "uint256",
                    "name": "amount",
                    "type": "uint256"
                }
            ],
            "name": "sell",
            "outputs": [],
            "stateMutability": "payable",
            "type": "function"
        }
    ],
    "bytecode": "0x608060405234801561001057600080fd5b5033600160006101000a81548173ffffffffffffffffffffffffffffffffffffffff021916908373ffffffffffffffffffffffffffffffffffffffff16021790555060405161005e906100bf565b604051809103906000f08015801561007a573d6000803e3d6000fd5b506000806101000a81548173ffffffffffffffffffffffffffffffffffffffff021916908373ffffffffffffffffffffffffffffffffffffffff1602179055506100cc565b611875806124fc83390190565b612421806100db6000396000f3fe608060405260043610620000925760003560e01c80637b0e697f11620000615780637b0e697f146200017f5780638da5cb5b14620001af578063a6f2ae3a14620001df578063e4849b3214620001eb578063f60362e4146200020b5762000092565b806324f84773146200009757806332a2c5d014620000c75780633e47d6f314620000f757806370a08231146200013b575b600080fd5b348015620000a457600080fd5b50620000af62000239565b604051620000be919062000d5c565b60405180910390f35b348015620000d457600080fd5b50620000df62000262565b604051620000ee919062000ca8565b60405180910390f35b3480156200010457600080fd5b506200012360048036038101906200011d919062000a30565b6200026a565b60405162000132919062000e3e565b60405180910390f35b3480156200014857600080fd5b5062000167600480360381019062000161919062000a30565b62000282565b60405162000176919062000e3e565b60405180910390f35b3480156200018c57600080fd5b50620001976200033b565b604051620001a6919062000d5c565b60405180910390f35b348015620001bc57600080fd5b50620001c76200035f565b604051620001d6919062000ca8565b60405180910390f35b620001e962000385565b005b62000209600480360381019062000203919062000ac9565b620005c3565b005b3480156200021857600080fd5b5062000237600480360381019062000231919062000a5c565b620008fc565b005b60008060009054906101000a900473ffffffffffffffffffffffffffffffffffffffff16905090565b600030905090565b60026020528060005260406000206000915090505481565b60008060009054906101000a900473ffffffffffffffffffffffffffffffffffffffff1673ffffffffffffffffffffffffffffffffffffffff166370a08231836040518263ffffffff1660e01b8152600401620002e0919062000ca8565b60206040518083038186803b158015620002f957600080fd5b505afa1580156200030e573d6000803e3d6000fd5b505050506040513d601f19601f8201168201806040525081019062000334919062000af5565b9050919050565b60008054906101000a900473ffffffffffffffffffffffffffffffffffffffff1681565b600160009054906101000a900473ffffffffffffffffffffffffffffffffffffffff1681565b600034905060008060009054906101000a900473ffffffffffffffffffffffffffffffffffffffff1673ffffffffffffffffffffffffffffffffffffffff166370a08231306040518263ffffffff1660e01b8152600401620003e8919062000ca8565b60206040518083038186803b1580156200040157600080fd5b505afa15801562000416573d6000803e3d6000fd5b505050506040513d601f19601f820116820180604052508101906200043c919062000af5565b9050655af3107a40008210156200048a576040517f08c379a0000000000000000000000000000000000000000000000000000000008152600401620004819062000dfa565b60405180910390fd5b81811015620004d0576040517f08c379a0000000000000000000000000000000000000000000000000000000008152600401620004c79062000db6565b60405180910390fd5b60008054906101000a900473ffffffffffffffffffffffffffffffffffffffff1673ffffffffffffffffffffffffffffffffffffffff1663a9059cbb33846040518363ffffffff1660e01b81526004016200052d92919062000d2f565b602060405180830381600087803b1580156200054857600080fd5b505af11580156200055d573d6000803e3d6000fd5b505050506040513d601f19601f8201168201806040525081019062000583919062000a9d565b507fc55650ccda1011e1cdc769b1fbf546ebb8c97800b6072b49e06cd560305b1d673383604051620005b792919062000d2f565b60405180910390a15050565b655af3107a40008110156200060f576040517f08c379a0000000000000000000000000000000000000000000000000000000008152600401620006069062000e1c565b60405180910390fd5b60008054906101000a900473ffffffffffffffffffffffffffffffffffffffff1673ffffffffffffffffffffffffffffffffffffffff1663095ea7b330836040518363ffffffff1660e01b81526004016200066c92919062000d2f565b602060405180830381600087803b1580156200068757600080fd5b505af11580156200069c573d6000803e3d6000fd5b505050506040513d601f19601f82011682018060405250810190620006c2919062000a9d565b5060008060009054906101000a900473ffffffffffffffffffffffffffffffffffffffff1673ffffffffffffffffffffffffffffffffffffffff1663dd62ed3e33306040518363ffffffff1660e01b81526004016200072392919062000cc5565b60206040518083038186803b1580156200073c57600080fd5b505afa15801562000751573d6000803e3d6000fd5b505050506040513d601f19601f8201168201806040525081019062000777919062000af5565b905081811015620007bf576040517f08c379a0000000000000000000000000000000000000000000000000000000008152600401620007b69062000dd8565b60405180910390fd5b60008054906101000a900473ffffffffffffffffffffffffffffffffffffffff1673ffffffffffffffffffffffffffffffffffffffff166323b872dd3330856040518463ffffffff1660e01b81526004016200081e9392919062000cf2565b602060405180830381600087803b1580156200083957600080fd5b505af11580156200084e573d6000803e3d6000fd5b505050506040513d601f19601f8201168201806040525081019062000874919062000a9d565b503373ffffffffffffffffffffffffffffffffffffffff166108fc839081150290604051600060405180830381858888f19350505050158015620008bc573d6000803e3d6000fd5b507fae92ab4b6f8f401ead768d3273e6bb937a13e39827d19c6376e8fd4512a05d9a3383604051620008f092919062000d2f565b60405180910390a15050565b60008060009054906101000a900473ffffffffffffffffffffffffffffffffffffffff1683836040516200093090620009c6565b6200093e9392919062000d79565b604051809103906000f0801580156200095b573d6000803e3d6000fd5b5090506003819080600181540180825580915050600190039060005260206000200160009091909190916101000a81548173ffffffffffffffffffffffffffffffffffffffff021916908373ffffffffffffffffffffffffffffffffffffffff160217905550505050565b6114bf8062000f2d83390190565b600081359050620009e58162000ede565b92915050565b600081519050620009fc8162000ef8565b92915050565b60008135905062000a138162000f12565b92915050565b60008151905062000a2a8162000f12565b92915050565b60006020828403121562000a4357600080fd5b600062000a5384828501620009d4565b91505092915050565b6000806040838503121562000a7057600080fd5b600062000a8085828601620009d4565b925050602062000a938582860162000a02565b9150509250929050565b60006020828403121562000ab057600080fd5b600062000ac084828501620009eb565b91505092915050565b60006020828403121562000adc57600080fd5b600062000aec8482850162000a02565b91505092915050565b60006020828403121562000b0857600080fd5b600062000b188482850162000a19565b91505092915050565b62000b2c8162000e6c565b82525050565b62000b3d8162000eb6565b82525050565b600062000b5260228362000e5b565b91507f496e73756666696369656e7420746f6b656e20696e207468652072657365727660008301527f652e0000000000000000000000000000000000000000000000000000000000006020830152604082019050919050565b600062000bba601a8362000e5b565b91507f436865636b2074686520746f6b656e20616c6c6f77616e63652e0000000000006000830152602082019050919050565b600062000bfc601c8362000e5b565b91507f4d696e696d756d207370656e64206f6620302e30303031204554482e000000006000830152602082019050919050565b600062000c3e60258362000e5b565b91507f596f75206e65656420746f2073656c6c206174206c6561737420302e3030303160008301527f204a4f542e0000000000000000000000000000000000000000000000000000006020830152604082019050919050565b62000ca28162000eac565b82525050565b600060208201905062000cbf600083018462000b21565b92915050565b600060408201905062000cdc600083018562000b21565b62000ceb602083018462000b21565b9392505050565b600060608201905062000d09600083018662000b21565b62000d18602083018562000b21565b62000d27604083018462000c97565b949350505050565b600060408201905062000d46600083018562000b21565b62000d55602083018462000c97565b9392505050565b600060208201905062000d73600083018462000b32565b92915050565b600060608201905062000d90600083018662000b32565b62000d9f602083018562000b21565b62000dae604083018462000c97565b949350505050565b6000602082019050818103600083015262000dd18162000b43565b9050919050565b6000602082019050818103600083015262000df38162000bab565b9050919050565b6000602082019050818103600083015262000e158162000bed565b9050919050565b6000602082019050818103600083015262000e378162000c2f565b9050919050565b600060208201905062000e55600083018462000c97565b92915050565b600082825260208201905092915050565b600062000e798262000e8c565b9050919050565b60008115159050919050565b600073ffffffffffffffffffffffffffffffffffffffff82169050919050565b6000819050919050565b600062000ec38262000eca565b9050919050565b600062000ed78262000e8c565b9050919050565b62000ee98162000e6c565b811462000ef557600080fd5b50565b62000f038162000e80565b811462000f0f57600080fd5b50565b62000f1d8162000eac565b811462000f2957600080fd5b5056fe60806040526064600560006101000a81548160ff021916908360ff1602179055506064600560016101000a81548160ff021916908360ff1602179055503480156200004957600080fd5b50604051620014bf380380620014bf83398181016040528101906200006f919062000145565b826000806101000a81548173ffffffffffffffffffffffffffffffffffffffff021916908373ffffffffffffffffffffffffffffffffffffffff16021790555081600260006101000a81548173ffffffffffffffffffffffffffffffffffffffff021916908373ffffffffffffffffffffffffffffffffffffffff160217905550806004819055505050506200023b565b6000815190506200011181620001ed565b92915050565b600081519050620001288162000207565b92915050565b6000815190506200013f8162000221565b92915050565b6000806000606084860312156200015b57600080fd5b60006200016b8682870162000117565b93505060206200017e8682870162000100565b925050604062000191868287016200012e565b9150509250925092565b6000620001a882620001c3565b9050919050565b6000620001bc826200019b565b9050919050565b600073ffffffffffffffffffffffffffffffffffffffff82169050919050565b6000819050919050565b620001f8816200019b565b81146200020457600080fd5b50565b6200021281620001af565b81146200021e57600080fd5b50565b6200022c81620001e3565b81146200023857600080fd5b50565b611274806200024b6000396000f3fe608060405234801561001057600080fd5b50600436106100cf5760003560e01c80637b0e697f1161008c578063b3b8b7d711610066578063b3b8b7d7146101cc578063be71248a146101ea578063dba36843146101f4578063f60dbf8914610212576100cf565b80637b0e697f146101865780638e7ea5b2146101a457806393e84cd9146101c2576100cf565b806301243fce146100d457806317ca5481146100f257806350adcdb7146101105780635b57014c1461011a57806360d1081314610138578063757fff2414610156575b600080fd5b6100dc61022e565b6040516100e99190610ef6565b60405180910390f35b6100fa610254565b604051610107919061106b565b60405180910390f35b610118610267565b005b6101226104c1565b60405161012f9190610ef6565b60405180910390f35b6101406104e7565b60405161014d919061106b565b60405180910390f35b610170600480360381019061016b9190610ce4565b6104fa565b60405161017d919061106b565b60405180910390f35b61018e61051a565b60405161019b9190610fb5565b60405180910390f35b6101ac61053e565b6040516101b99190610ef6565b60405180910390f35b6101ca610850565b005b6101d46108b1565b6040516101e19190610f9a565b60405180910390f35b6101f261090a565b005b6101fc610c0a565b6040516102099190611050565b60405180910390f35b61022c60048036038101906102279190610ce4565b610c10565b005b600260009054906101000a900473ffffffffffffffffffffffffffffffffffffffff1681565b600560019054906101000a900460ff1681565b60008054906101000a900473ffffffffffffffffffffffffffffffffffffffff1673ffffffffffffffffffffffffffffffffffffffff1663095ea7b3306004546040518363ffffffff1660e01b81526004016102c4929190610f71565b602060405180830381600087803b1580156102de57600080fd5b505af11580156102f2573d6000803e3d6000fd5b505050506040513d601f19601f820116820180604052508101906103169190610d0d565b5060008060009054906101000a900473ffffffffffffffffffffffffffffffffffffffff1673ffffffffffffffffffffffffffffffffffffffff1663dd62ed3e33306040518363ffffffff1660e01b8152600401610375929190610f11565b60206040518083038186803b15801561038d57600080fd5b505afa1580156103a1573d6000803e3d6000fd5b505050506040513d601f19601f820116820180604052508101906103c59190610d36565b905060045481101561040c576040517f08c379a000000000000000000000000000000000000000000000000000000000815260040161040390611030565b60405180910390fd5b60008054906101000a900473ffffffffffffffffffffffffffffffffffffffff1673ffffffffffffffffffffffffffffffffffffffff166323b872dd33306004546040518463ffffffff1660e01b815260040161046b93929190610f3a565b602060405180830381600087803b15801561048557600080fd5b505af1158015610499573d6000803e3d6000fd5b505050506040513d601f19601f820116820180604052508101906104bd9190610d0d565b5050565b600360009054906101000a900473ffffffffffffffffffffffffffffffffffffffff1681565b600560009054906101000a900460ff1681565b60016020528060005260406000206000915054906101000a900460ff1681565b60008054906101000a900473ffffffffffffffffffffffffffffffffffffffff1681565b60006064600560009054906101000a900460ff1660ff161415610596576040517f08c379a000000000000000000000000000000000000000000000000000000000815260040161058d90610fd0565b60405180910390fd5b6064600560019054906101000a900460ff1660ff1614156105ec576040517f08c379a00000000000000000000000000000000000000000000000000000000081526004016105e390610ff0565b60405180910390fd5b60008060016000600260009054906101000a900473ffffffffffffffffffffffffffffffffffffffff1673ffffffffffffffffffffffffffffffffffffffff1673ffffffffffffffffffffffffffffffffffffffff16815260200190815260200160002060009054906101000a900460ff1660ff16146106da5760016000600260009054906101000a900473ffffffffffffffffffffffffffffffffffffffff1673ffffffffffffffffffffffffffffffffffffffff1673ffffffffffffffffffffffffffffffffffffffff16815260200190815260200160002060009054906101000a900460ff166106dd565b60255b905060008060016000600360009054906101000a900473ffffffffffffffffffffffffffffffffffffffff1673ffffffffffffffffffffffffffffffffffffffff1673ffffffffffffffffffffffffffffffffffffffff16815260200190815260200160002060009054906101000a900460ff1660ff16146107cd5760016000600360009054906101000a900473ffffffffffffffffffffffffffffffffffffffff1673ffffffffffffffffffffffffffffffffffffffff1673ffffffffffffffffffffffffffffffffffffffff16815260200190815260200160002060009054906101000a900460ff166107d0565b60255b90508060ff168260ff16111561080c57600260009054906101000a900473ffffffffffffffffffffffffffffffffffffffff169250505061084d565b8160ff168160ff16111561084657600360009054906101000a900473ffffffffffffffffffffffffffffffffffffffff169250505061084d565b6000925050505b90565b610858610c9c565b600160003373ffffffffffffffffffffffffffffffffffffffff1673ffffffffffffffffffffffffffffffffffffffff16815260200190815260200160002060006101000a81548160ff021916908360ff160217905550565b60008073ffffffffffffffffffffffffffffffffffffffff16600360009054906101000a900473ffffffffffffffffffffffffffffffffffffffff1673ffffffffffffffffffffffffffffffffffffffff161415905090565b600061091461053e565b9050600073ffffffffffffffffffffffffffffffffffffffff168173ffffffffffffffffffffffffffffffffffffffff161415610988576064600560006101000a81548160ff021916908360ff1602179055506064600560016101000a81548160ff021916908360ff160217905550610c07565b60006064605f600260045461099d91906110c8565b6109a791906110c8565b6109b19190611097565b905060008054906101000a900473ffffffffffffffffffffffffffffffffffffffff1673ffffffffffffffffffffffffffffffffffffffff1663095ea7b330836040518363ffffffff1660e01b8152600401610a0e929190610f71565b602060405180830381600087803b158015610a2857600080fd5b505af1158015610a3c573d6000803e3d6000fd5b505050506040513d601f19601f82011682018060405250810190610a609190610d0d565b5060008060009054906101000a900473ffffffffffffffffffffffffffffffffffffffff1673ffffffffffffffffffffffffffffffffffffffff1663dd62ed3e33306040518363ffffffff1660e01b8152600401610abf929190610f11565b60206040518083038186803b158015610ad757600080fd5b505afa158015610aeb573d6000803e3d6000fd5b505050506040513d601f19601f82011682018060405250810190610b0f9190610d36565b905081811015610b54576040517f08c379a0000000000000000000000000000000000000000000000000000000008152600401610b4b90611030565b60405180910390fd5b60008054906101000a900473ffffffffffffffffffffffffffffffffffffffff1673ffffffffffffffffffffffffffffffffffffffff166323b872dd3085856040518463ffffffff1660e01b8152600401610bb193929190610f3a565b602060405180830381600087803b158015610bcb57600080fd5b505af1158015610bdf573d6000803e3d6000fd5b505050506040513d601f19601f82011682018060405250810190610c039190610d0d565b5050505b50565b60045481565b610c186108b1565b15610c58576040517f08c379a0000000000000000000000000000000000000000000000000000000008152600401610c4f90611010565b60405180910390fd5b80600360006101000a81548173ffffffffffffffffffffffffffffffffffffffff021916908373ffffffffffffffffffffffffffffffffffffffff16021790555050565b60006024905090565b600081359050610cb4816111f9565b92915050565b600081519050610cc981611210565b92915050565b600081519050610cde81611227565b92915050565b600060208284031215610cf657600080fd5b6000610d0484828501610ca5565b91505092915050565b600060208284031215610d1f57600080fd5b6000610d2d84828501610cba565b91505092915050565b600060208284031215610d4857600080fd5b6000610d5684828501610ccf565b91505092915050565b610d6881611122565b82525050565b610d7781611134565b82525050565b610d8681611177565b82525050565b6000610d99602483611086565b91507f43616e64696461746520312068617665206e6f74207370756e2074686520776860008301527f65656c2e000000000000000000000000000000000000000000000000000000006020830152604082019050919050565b6000610dff602483611086565b91507f43616e64696461746520322068617665206e6f74207370756e2074686520776860008301527f65656c2e000000000000000000000000000000000000000000000000000000006020830152604082019050919050565b6000610e65601983611086565b91507f436f6d70657469746f7220616c72656164792065786973742e000000000000006000830152602082019050919050565b6000610ea5601a83611086565b91507f436865636b2074686520746f6b656e20616c6c6f77616e63652e0000000000006000830152602082019050919050565b610ee181611160565b82525050565b610ef08161116a565b82525050565b6000602082019050610f0b6000830184610d5f565b92915050565b6000604082019050610f266000830185610d5f565b610f336020830184610d5f565b9392505050565b6000606082019050610f4f6000830186610d5f565b610f5c6020830185610d5f565b610f696040830184610ed8565b949350505050565b6000604082019050610f866000830185610d5f565b610f936020830184610ed8565b9392505050565b6000602082019050610faf6000830184610d6e565b92915050565b6000602082019050610fca6000830184610d7d565b92915050565b60006020820190508181036000830152610fe981610d8c565b9050919050565b6000602082019050818103600083015261100981610df2565b9050919050565b6000602082019050818103600083015261102981610e58565b9050919050565b6000602082019050818103600083015261104981610e98565b9050919050565b60006020820190506110656000830184610ed8565b92915050565b60006020820190506110806000830184610ee7565b92915050565b600082825260208201905092915050565b60006110a282611160565b91506110ad83611160565b9250826110bd576110bc6111ca565b5b828204905092915050565b60006110d382611160565b91506110de83611160565b9250817fffffffffffffffffffffffffffffffffffffffffffffffffffffffffffffffff04831182151516156111175761111661119b565b5b828202905092915050565b600061112d82611140565b9050919050565b60008115159050919050565b600073ffffffffffffffffffffffffffffffffffffffff82169050919050565b6000819050919050565b600060ff82169050919050565b600061118282611189565b9050919050565b600061119482611140565b9050919050565b7f4e487b7100000000000000000000000000000000000000000000000000000000600052601160045260246000fd5b7f4e487b7100000000000000000000000000000000000000000000000000000000600052601260045260246000fd5b61120281611122565b811461120d57600080fd5b50565b61121981611134565b811461122457600080fd5b50565b61123081611160565b811461123b57600080fd5b5056fea26469706673582212203676f278adb2514801f2a27dd4f912558bdf5f5979e9faa7119d0e5b7278cbe164736f6c63430008000033a2646970667358221220f150d70ec56405d7039d0debf84e3ec820b420617f23ddb8eb5f18f34b607f8d64736f6c6343000800003360806040523480156200001157600080fd5b506040518060400160405280600a81526020017f4a6f6b6520546f6b656e000000000000000000000000000000000000000000008152506040518060400160405280600381526020017f4a4f540000000000000000000000000000000000000000000000000000000000815250816003908051906020019062000096929190620002b9565b508060049080519060200190620000af929190620002b9565b50505033600560006101000a81548173ffffffffffffffffffffffffffffffffffffffff021916908373ffffffffffffffffffffffffffffffffffffffff16021790555062000130600560009054906101000a900473ffffffffffffffffffffffffffffffffffffffff16683635c9adc5dea000006200013660201b60201c565b62000507565b600073ffffffffffffffffffffffffffffffffffffffff168273ffffffffffffffffffffffffffffffffffffffff161415620001a9576040517f08c379a0000000000000000000000000000000000000000000000000000000008152600401620001a090620003bc565b60405180910390fd5b620001bd60008383620002af60201b60201c565b8060026000828254620001d191906200040c565b92505081905550806000808473ffffffffffffffffffffffffffffffffffffffff1673ffffffffffffffffffffffffffffffffffffffff16815260200190815260200160002060008282546200022891906200040c565b925050819055508173ffffffffffffffffffffffffffffffffffffffff16600073ffffffffffffffffffffffffffffffffffffffff167fddf252ad1be2c89b69c2b068fc378daa952ba7f163c4a11628f55a4df523b3ef836040516200028f9190620003de565b60405180910390a3620002ab60008383620002b460201b60201c565b5050565b505050565b505050565b828054620002c79062000473565b90600052602060002090601f016020900481019282620002eb576000855562000337565b82601f106200030657805160ff191683800117855562000337565b8280016001018555821562000337579182015b828111156200033657825182559160200191906001019062000319565b5b5090506200034691906200034a565b5090565b5b80821115620003655760008160009055506001016200034b565b5090565b600062000378601f83620003fb565b91507f45524332303a206d696e7420746f20746865207a65726f2061646472657373006000830152602082019050919050565b620003b68162000469565b82525050565b60006020820190508181036000830152620003d78162000369565b9050919050565b6000602082019050620003f56000830184620003ab565b92915050565b600082825260208201905092915050565b6000620004198262000469565b9150620004268362000469565b9250827fffffffffffffffffffffffffffffffffffffffffffffffffffffffffffffffff038211156200045e576200045d620004a9565b5b828201905092915050565b6000819050919050565b600060028204905060018216806200048c57607f821691505b60208210811415620004a357620004a2620004d8565b5b50919050565b7f4e487b7100000000000000000000000000000000000000000000000000000000600052601160045260246000fd5b7f4e487b7100000000000000000000000000000000000000000000000000000000600052602260045260246000fd5b61135e80620005176000396000f3fe608060405234801561001057600080fd5b50600436106100b45760003560e01c806370a082311161007157806370a08231146101a35780638da5cb5b146101d357806395d89b41146101f1578063a457c2d71461020f578063a9059cbb1461023f578063dd62ed3e1461026f576100b4565b806306fdde03146100b9578063095ea7b3146100d757806318160ddd1461010757806323b872dd14610125578063313ce567146101555780633950935114610173575b600080fd5b6100c161029f565b6040516100ce9190611027565b60405180910390f35b6100f160048036038101906100ec9190610c9c565b610331565b6040516100fe919061100c565b60405180910390f35b61010f610354565b60405161011c9190611129565b60405180910390f35b61013f600480360381019061013a9190610c4d565b61035e565b60405161014c919061100c565b60405180910390f35b61015d61038d565b60405161016a9190611144565b60405180910390f35b61018d60048036038101906101889190610c9c565b610396565b60405161019a919061100c565b60405180910390f35b6101bd60048036038101906101b89190610be8565b610440565b6040516101ca9190611129565b60405180910390f35b6101db610488565b6040516101e89190610ff1565b60405180910390f35b6101f96104ae565b6040516102069190611027565b60405180910390f35b61022960048036038101906102249190610c9c565b610540565b604051610236919061100c565b60405180910390f35b61025960048036038101906102549190610c9c565b61062a565b604051610266919061100c565b60405180910390f35b61028960048036038101906102849190610c11565b61064d565b6040516102969190611129565b60405180910390f35b6060600380546102ae90611259565b80601f01602080910402602001604051908101604052809291908181526020018280546102da90611259565b80156103275780601f106102fc57610100808354040283529160200191610327565b820191906000526020600020905b81548152906001019060200180831161030a57829003601f168201915b5050505050905090565b60008061033c6106d4565b90506103498185856106dc565b600191505092915050565b6000600254905090565b6000806103696106d4565b90506103768582856108a7565b610381858585610933565b60019150509392505050565b60006012905090565b6000806103a16106d4565b9050610435818585600160008673ffffffffffffffffffffffffffffffffffffffff1673ffffffffffffffffffffffffffffffffffffffff16815260200190815260200160002060008973ffffffffffffffffffffffffffffffffffffffff1673ffffffffffffffffffffffffffffffffffffffff16815260200190815260200160002054610430919061117b565b6106dc565b600191505092915050565b60008060008373ffffffffffffffffffffffffffffffffffffffff1673ffffffffffffffffffffffffffffffffffffffff168152602001908152602001600020549050919050565b600560009054906101000a900473ffffffffffffffffffffffffffffffffffffffff1681565b6060600480546104bd90611259565b80601f01602080910402602001604051908101604052809291908181526020018280546104e990611259565b80156105365780601f1061050b57610100808354040283529160200191610536565b820191906000526020600020905b81548152906001019060200180831161051957829003601f168201915b5050505050905090565b60008061054b6106d4565b90506000600160008373ffffffffffffffffffffffffffffffffffffffff1673ffffffffffffffffffffffffffffffffffffffff16815260200190815260200160002060008673ffffffffffffffffffffffffffffffffffffffff1673ffffffffffffffffffffffffffffffffffffffff16815260200190815260200160002054905083811015610611576040517f08c379a000000000000000000000000000000000000000000000000000000000815260040161060890611109565b60405180910390fd5b61061e82868684036106dc565b60019250505092915050565b6000806106356106d4565b9050610642818585610933565b600191505092915050565b6000600160008473ffffffffffffffffffffffffffffffffffffffff1673ffffffffffffffffffffffffffffffffffffffff16815260200190815260200160002060008373ffffffffffffffffffffffffffffffffffffffff1673ffffffffffffffffffffffffffffffffffffffff16815260200190815260200160002054905092915050565b600033905090565b600073ffffffffffffffffffffffffffffffffffffffff168373ffffffffffffffffffffffffffffffffffffffff16141561074c576040517f08c379a0000000000000000000000000000000000000000000000000000000008152600401610743906110e9565b60405180910390fd5b600073ffffffffffffffffffffffffffffffffffffffff168273ffffffffffffffffffffffffffffffffffffffff1614156107bc576040517f08c379a00000000000000000000000000000000000000000000000000000000081526004016107b390611069565b60405180910390fd5b80600160008573ffffffffffffffffffffffffffffffffffffffff1673ffffffffffffffffffffffffffffffffffffffff16815260200190815260200160002060008473ffffffffffffffffffffffffffffffffffffffff1673ffffffffffffffffffffffffffffffffffffffff168152602001908152602001600020819055508173ffffffffffffffffffffffffffffffffffffffff168373ffffffffffffffffffffffffffffffffffffffff167f8c5be1e5ebec7d5bd14f71427d1e84f3dd0314c0f7b2291e5b200ac8c7c3b9258360405161089a9190611129565b60405180910390a3505050565b60006108b3848461064d565b90507fffffffffffffffffffffffffffffffffffffffffffffffffffffffffffffffff811461092d578181101561091f576040517f08c379a000000000000000000000000000000000000000000000000000000000815260040161091690611089565b60405180910390fd5b61092c84848484036106dc565b5b50505050565b600073ffffffffffffffffffffffffffffffffffffffff168373ffffffffffffffffffffffffffffffffffffffff1614156109a3576040517f08c379a000000000000000000000000000000000000000000000000000000000815260040161099a906110c9565b60405180910390fd5b600073ffffffffffffffffffffffffffffffffffffffff168273ffffffffffffffffffffffffffffffffffffffff161415610a13576040517f08c379a0000000000000000000000000000000000000000000000000000000008152600401610a0a90611049565b60405180910390fd5b610a1e838383610bb4565b60008060008573ffffffffffffffffffffffffffffffffffffffff1673ffffffffffffffffffffffffffffffffffffffff16815260200190815260200160002054905081811015610aa4576040517f08c379a0000000000000000000000000000000000000000000000000000000008152600401610a9b906110a9565b60405180910390fd5b8181036000808673ffffffffffffffffffffffffffffffffffffffff1673ffffffffffffffffffffffffffffffffffffffff16815260200190815260200160002081905550816000808573ffffffffffffffffffffffffffffffffffffffff1673ffffffffffffffffffffffffffffffffffffffff1681526020019081526020016000206000828254610b37919061117b565b925050819055508273ffffffffffffffffffffffffffffffffffffffff168473ffffffffffffffffffffffffffffffffffffffff167fddf252ad1be2c89b69c2b068fc378daa952ba7f163c4a11628f55a4df523b3ef84604051610b9b9190611129565b60405180910390a3610bae848484610bb9565b50505050565b505050565b505050565b600081359050610bcd816112fa565b92915050565b600081359050610be281611311565b92915050565b600060208284031215610bfa57600080fd5b6000610c0884828501610bbe565b91505092915050565b60008060408385031215610c2457600080fd5b6000610c3285828601610bbe565b9250506020610c4385828601610bbe565b9150509250929050565b600080600060608486031215610c6257600080fd5b6000610c7086828701610bbe565b9350506020610c8186828701610bbe565b9250506040610c9286828701610bd3565b9150509250925092565b60008060408385031215610caf57600080fd5b6000610cbd85828601610bbe565b9250506020610cce85828601610bd3565b9150509250929050565b610ce1816111d1565b82525050565b610cf0816111e3565b82525050565b6000610d018261115f565b610d0b818561116a565b9350610d1b818560208601611226565b610d24816112e9565b840191505092915050565b6000610d3c60238361116a565b91507f45524332303a207472616e7366657220746f20746865207a65726f206164647260008301527f65737300000000000000000000000000000000000000000000000000000000006020830152604082019050919050565b6000610da260228361116a565b91507f45524332303a20617070726f766520746f20746865207a65726f20616464726560008301527f73730000000000000000000000000000000000000000000000000000000000006020830152604082019050919050565b6000610e08601d8361116a565b91507f45524332303a20696e73756666696369656e7420616c6c6f77616e63650000006000830152602082019050919050565b6000610e4860268361116a565b91507f45524332303a207472616e7366657220616d6f756e742065786365656473206260008301527f616c616e636500000000000000000000000000000000000000000000000000006020830152604082019050919050565b6000610eae60258361116a565b91507f45524332303a207472616e736665722066726f6d20746865207a65726f20616460008301527f64726573730000000000000000000000000000000000000000000000000000006020830152604082019050919050565b6000610f1460248361116a565b91507f45524332303a20617070726f76652066726f6d20746865207a65726f2061646460008301527f72657373000000000000000000000000000000000000000000000000000000006020830152604082019050919050565b6000610f7a60258361116a565b91507f45524332303a2064656372656173656420616c6c6f77616e63652062656c6f7760008301527f207a65726f0000000000000000000000000000000000000000000000000000006020830152604082019050919050565b610fdc8161120f565b82525050565b610feb81611219565b82525050565b60006020820190506110066000830184610cd8565b92915050565b60006020820190506110216000830184610ce7565b92915050565b600060208201905081810360008301526110418184610cf6565b905092915050565b6000602082019050818103600083015261106281610d2f565b9050919050565b6000602082019050818103600083015261108281610d95565b9050919050565b600060208201905081810360008301526110a281610dfb565b9050919050565b600060208201905081810360008301526110c281610e3b565b9050919050565b600060208201905081810360008301526110e281610ea1565b9050919050565b6000602082019050818103600083015261110281610f07565b9050919050565b6000602082019050818103600083015261112281610f6d565b9050919050565b600060208201905061113e6000830184610fd3565b92915050565b60006020820190506111596000830184610fe2565b92915050565b600081519050919050565b600082825260208201905092915050565b60006111868261120f565b91506111918361120f565b9250827fffffffffffffffffffffffffffffffffffffffffffffffffffffffffffffffff038211156111c6576111c561128b565b5b828201905092915050565b60006111dc826111ef565b9050919050565b60008115159050919050565b600073ffffffffffffffffffffffffffffffffffffffff82169050919050565b6000819050919050565b600060ff82169050919050565b60005b83811015611244578082015181840152602081019050611229565b83811115611253576000848401525b50505050565b6000600282049050600182168061127157607f821691505b60208210811415611285576112846112ba565b5b50919050565b7f4e487b7100000000000000000000000000000000000000000000000000000000600052601160045260246000fd5b7f4e487b7100000000000000000000000000000000000000000000000000000000600052602260045260246000fd5b6000601f19601f8301169050919050565b611303816111d1565b811461130e57600080fd5b50565b61131a8161120f565b811461132557600080fd5b5056fea2646970667358221220380620dc6db67c7251700b418898b2d6126995c888dcb8d6e34751db617065cd64736f6c63430008000033",
    "linkReferences": {},
    "deployedLinkReferences": {}
}