{
  "_format": "hh-sol-artifact-1",
  "contractName": "JokeToken",
  "sourceName": "contracts/JokeToken.sol",
  "abi": [
    {
      "inputs": [],
      "stateMutability": "nonpayable",
      "type": "constructor"
    },
    {
      "anonymous": false,
      "inputs": [
        {
          "indexed": true,
          "internalType": "address",
          "name": "owner",
          "type": "address"
        },
        {
          "indexed": true,
          "internalType": "address",
          "name": "spender",
          "type": "address"
        },
        {
          "indexed": false,
          "internalType": "uint256",
          "name": "value",
          "type": "uint256"
        }
      ],
      "name": "Approval",
      "type": "event"
    },
    {
      "anonymous": false,
      "inputs": [
        {
          "indexed": true,
          "internalType": "address",
          "name": "previousOwner",
          "type": "address"
        },
        {
          "indexed": true,
          "internalType": "address",
          "name": "newOwner",
          "type": "address"
        }
      ],
      "name": "OwnershipTransferred",
      "type": "event"
    },
    {
      "anonymous": false,
      "inputs": [
        {
          "indexed": true,
          "internalType": "address",
          "name": "from",
          "type": "address"
        },
        {
          "indexed": true,
          "internalType": "address",
          "name": "to",
          "type": "address"
        },
        {
          "indexed": false,
          "internalType": "uint256",
          "name": "value",
          "type": "uint256"
        }
      ],
      "name": "Transfer",
      "type": "event"
    },
    {
      "inputs": [
        {
          "internalType": "address",
          "name": "owner",
          "type": "address"
        },
        {
          "internalType": "address",
          "name": "spender",
          "type": "address"
        }
      ],
      "name": "allowance",
      "outputs": [
        {
          "internalType": "uint256",
          "name": "",
          "type": "uint256"
        }
      ],
      "stateMutability": "view",
      "type": "function"
    },
    {
      "inputs": [
        {
          "internalType": "address",
          "name": "spender",
          "type": "address"
        },
        {
          "internalType": "uint256",
          "name": "amount",
          "type": "uint256"
        }
      ],
      "name": "approve",
      "outputs": [
        {
          "internalType": "bool",
          "name": "",
          "type": "bool"
        }
      ],
      "stateMutability": "nonpayable",
      "type": "function"
    },
    {
      "inputs": [
        {
          "internalType": "address",
          "name": "account",
          "type": "address"
        }
      ],
      "name": "balanceOf",
      "outputs": [
        {
          "internalType": "uint256",
          "name": "",
          "type": "uint256"
        }
      ],
      "stateMutability": "view",
      "type": "function"
    },
    {
      "inputs": [
        {
          "internalType": "uint256",
          "name": "amount",
          "type": "uint256"
        }
      ],
      "name": "burn",
      "outputs": [],
      "stateMutability": "nonpayable",
      "type": "function"
    },
    {
      "inputs": [
        {
          "internalType": "address",
          "name": "account",
          "type": "address"
        },
        {
          "internalType": "uint256",
          "name": "amount",
          "type": "uint256"
        }
      ],
      "name": "burnFrom",
      "outputs": [],
      "stateMutability": "nonpayable",
      "type": "function"
    },
    {
      "inputs": [
        {
          "internalType": "address",
          "name": "recipient",
          "type": "address"
        }
      ],
      "name": "buy",
      "outputs": [],
      "stateMutability": "payable",
      "type": "function"
    },
    {
      "inputs": [],
      "name": "decimals",
      "outputs": [
        {
          "internalType": "uint8",
          "name": "",
          "type": "uint8"
        }
      ],
      "stateMutability": "view",
      "type": "function"
    },
    {
      "inputs": [
        {
          "internalType": "address",
          "name": "spender",
          "type": "address"
        },
        {
          "internalType": "uint256",
          "name": "subtractedValue",
          "type": "uint256"
        }
      ],
      "name": "decreaseAllowance",
      "outputs": [
        {
          "internalType": "bool",
          "name": "",
          "type": "bool"
        }
      ],
      "stateMutability": "nonpayable",
      "type": "function"
    },
    {
      "inputs": [
        {
          "internalType": "address",
          "name": "spender",
          "type": "address"
        },
        {
          "internalType": "uint256",
          "name": "addedValue",
          "type": "uint256"
        }
      ],
      "name": "increaseAllowance",
      "outputs": [
        {
          "internalType": "bool",
          "name": "",
          "type": "bool"
        }
      ],
      "stateMutability": "nonpayable",
      "type": "function"
    },
    {
      "inputs": [
        {
          "internalType": "address",
          "name": "to",
          "type": "address"
        },
        {
          "internalType": "uint256",
          "name": "amount",
          "type": "uint256"
        }
      ],
      "name": "mint",
      "outputs": [],
      "stateMutability": "nonpayable",
      "type": "function"
    },
    {
      "inputs": [],
      "name": "name",
      "outputs": [
        {
          "internalType": "string",
          "name": "",
          "type": "string"
        }
      ],
      "stateMutability": "view",
      "type": "function"
    },
    {
      "inputs": [],
      "name": "owner",
      "outputs": [
        {
          "internalType": "address",
          "name": "",
          "type": "address"
        }
      ],
      "stateMutability": "view",
      "type": "function"
    },
    {
      "inputs": [],
      "name": "renounceOwnership",
      "outputs": [],
      "stateMutability": "nonpayable",
      "type": "function"
    },
    {
      "inputs": [
        {
          "internalType": "address",
          "name": "recipient",
          "type": "address"
        },
        {
          "internalType": "uint256",
          "name": "amount",
          "type": "uint256"
        }
      ],
      "name": "sell",
      "outputs": [],
      "stateMutability": "nonpayable",
      "type": "function"
    },
    {
      "inputs": [],
      "name": "symbol",
      "outputs": [
        {
          "internalType": "string",
          "name": "",
          "type": "string"
        }
      ],
      "stateMutability": "view",
      "type": "function"
    },
    {
      "inputs": [],
      "name": "tokensMinted",
      "outputs": [
        {
          "internalType": "uint256",
          "name": "",
          "type": "uint256"
        }
      ],
      "stateMutability": "view",
      "type": "function"
    },
    {
      "inputs": [],
      "name": "totalSupply",
      "outputs": [
        {
          "internalType": "uint256",
          "name": "",
          "type": "uint256"
        }
      ],
      "stateMutability": "view",
      "type": "function"
    },
    {
      "inputs": [
        {
          "internalType": "address",
          "name": "to",
          "type": "address"
        },
        {
          "internalType": "uint256",
          "name": "amount",
          "type": "uint256"
        }
      ],
      "name": "transfer",
      "outputs": [
        {
          "internalType": "bool",
          "name": "",
          "type": "bool"
        }
      ],
      "stateMutability": "nonpayable",
      "type": "function"
    },
    {
      "inputs": [
        {
          "internalType": "address",
          "name": "from",
          "type": "address"
        },
        {
          "internalType": "address",
          "name": "to",
          "type": "address"
        },
        {
          "internalType": "uint256",
          "name": "amount",
          "type": "uint256"
        }
      ],
      "name": "transferFrom",
      "outputs": [
        {
          "internalType": "bool",
          "name": "",
          "type": "bool"
        }
      ],
      "stateMutability": "nonpayable",
      "type": "function"
    },
    {
      "inputs": [
        {
          "internalType": "address",
          "name": "newOwner",
          "type": "address"
        }
      ],
      "name": "transferOwnership",
      "outputs": [],
      "stateMutability": "nonpayable",
      "type": "function"
    }
  ],
  "bytecode": "0x60806040523480156200001157600080fd5b506040518060400160405280600981526020017f4a6f6b65546f6b656e00000000000000000000000000000000000000000000008152506040518060400160405280600381526020017f4a4f540000000000000000000000000000000000000000000000000000000000815250816003908051906020019062000096929190620001a6565b508060049080519060200190620000af929190620001a6565b505050620000d2620000c6620000d860201b60201c565b620000e060201b60201c565b620002bb565b600033905090565b6000600560009054906101000a900473ffffffffffffffffffffffffffffffffffffffff16905081600560006101000a81548173ffffffffffffffffffffffffffffffffffffffff021916908373ffffffffffffffffffffffffffffffffffffffff1602179055508173ffffffffffffffffffffffffffffffffffffffff168173ffffffffffffffffffffffffffffffffffffffff167f8be0079c531659141344cd1fd0a4f28419497f9722a3daafe3b4186f6b6457e060405160405180910390a35050565b828054620001b49062000256565b90600052602060002090601f016020900481019282620001d8576000855562000224565b82601f10620001f357805160ff191683800117855562000224565b8280016001018555821562000224579182015b828111156200022357825182559160200191906001019062000206565b5b50905062000233919062000237565b5090565b5b808211156200025257600081600090555060010162000238565b5090565b600060028204905060018216806200026f57607f821691505b602082108114156200028657620002856200028c565b5b50919050565b7f4e487b7100000000000000000000000000000000000000000000000000000000600052602260045260246000fd5b6122a480620002cb6000396000f3fe60806040526004361061011f5760003560e01c806370a08231116100a0578063a457c2d711610064578063a457c2d7146103d5578063a9059cbb14610412578063dd62ed3e1461044f578063f088d5471461048c578063f2fde38b146104a85761011f565b806370a0823114610302578063715018a61461033f57806379cc6790146103565780638da5cb5b1461037f57806395d89b41146103aa5761011f565b806339509351116100e7578063395093511461021f57806340c10f191461025c57806342966c68146102855780636c197ff5146102ae5780636de9f32b146102d75761011f565b806306fdde0314610124578063095ea7b31461014f57806318160ddd1461018c57806323b872dd146101b7578063313ce567146101f4575b600080fd5b34801561013057600080fd5b506101396104d1565b6040516101469190611a0d565b60405180910390f35b34801561015b57600080fd5b50610176600480360381019061017191906116cd565b610563565b60405161018391906119f2565b60405180910390f35b34801561019857600080fd5b506101a1610586565b6040516101ae9190611c2f565b60405180910390f35b3480156101c357600080fd5b506101de60048036038101906101d9919061167e565b610590565b6040516101eb91906119f2565b60405180910390f35b34801561020057600080fd5b506102096105bf565b6040516102169190611c4a565b60405180910390f35b34801561022b57600080fd5b50610246600480360381019061024191906116cd565b6105c8565b60405161025391906119f2565b60405180910390f35b34801561026857600080fd5b50610283600480360381019061027e91906116cd565b610672565b005b34801561029157600080fd5b506102ac60048036038101906102a79190611709565b6106fc565b005b3480156102ba57600080fd5b506102d560048036038101906102d091906116cd565b610710565b005b3480156102e357600080fd5b506102ec610857565b6040516102f99190611c2f565b60405180910390f35b34801561030e57600080fd5b5061032960048036038101906103249190611619565b610861565b6040516103369190611c2f565b60405180910390f35b34801561034b57600080fd5b506103546108a9565b005b34801561036257600080fd5b5061037d600480360381019061037891906116cd565b610931565b005b34801561038b57600080fd5b50610394610951565b6040516103a191906119d7565b60405180910390f35b3480156103b657600080fd5b506103bf61097b565b6040516103cc9190611a0d565b60405180910390f35b3480156103e157600080fd5b506103fc60048036038101906103f791906116cd565b610a0d565b60405161040991906119f2565b60405180910390f35b34801561041e57600080fd5b50610439600480360381019061043491906116cd565b610af7565b60405161044691906119f2565b60405180910390f35b34801561045b57600080fd5b5061047660048036038101906104719190611642565b610b1a565b6040516104839190611c2f565b60405180910390f35b6104a660048036038101906104a19190611619565b610ba1565b005b3480156104b457600080fd5b506104cf60048036038101906104ca9190611619565b610c10565b005b6060600380546104e090611d93565b80601f016020809104026020016040519081016040528092919081815260200182805461050c90611d93565b80156105595780601f1061052e57610100808354040283529160200191610559565b820191906000526020600020905b81548152906001019060200180831161053c57829003601f168201915b5050505050905090565b60008061056e610d08565b905061057b818585610d10565b600191505092915050565b6000600254905090565b60008061059b610d08565b90506105a8858285610edb565b6105b3858585610f67565b60019150509392505050565b60006012905090565b6000806105d3610d08565b9050610667818585600160008673ffffffffffffffffffffffffffffffffffffffff1673ffffffffffffffffffffffffffffffffffffffff16815260200190815260200160002060008973ffffffffffffffffffffffffffffffffffffffff1673ffffffffffffffffffffffffffffffffffffffff168152602001908152602001600020546106629190611c81565b610d10565b600191505092915050565b61067a610d08565b73ffffffffffffffffffffffffffffffffffffffff16610698610951565b73ffffffffffffffffffffffffffffffffffffffff16146106ee576040517f08c379a00000000000000000000000000000000000000000000000000000000081526004016106e590611b4f565b60405180910390fd5b6106f882826111e8565b5050565b61070d610707610d08565b82611348565b50565b655af3107a4000811015610759576040517f08c379a000000000000000000000000000000000000000000000000000000000815260040161075090611aaf565b60405180910390fd5b8061076383610861565b10156107a4576040517f08c379a000000000000000000000000000000000000000000000000000000000815260040161079b90611a6f565b60405180910390fd5b8060065410156107e9576040517f08c379a00000000000000000000000000000000000000000000000000000000081526004016107e090611a4f565b60405180910390fd5b6107f38282611348565b80600660008282546108059190611cd7565b925050819055508173ffffffffffffffffffffffffffffffffffffffff166108fc829081150290604051600060405180830381858888f19350505050158015610852573d6000803e3d6000fd5b505050565b6000600654905090565b60008060008373ffffffffffffffffffffffffffffffffffffffff1673ffffffffffffffffffffffffffffffffffffffff168152602001908152602001600020549050919050565b6108b1610d08565b73ffffffffffffffffffffffffffffffffffffffff166108cf610951565b73ffffffffffffffffffffffffffffffffffffffff1614610925576040517f08c379a000000000000000000000000000000000000000000000000000000000815260040161091c90611b4f565b60405180910390fd5b61092f600061151f565b565b6109438261093d610d08565b83610edb565b61094d8282611348565b5050565b6000600560009054906101000a900473ffffffffffffffffffffffffffffffffffffffff16905090565b60606004805461098a90611d93565b80601f01602080910402602001604051908101604052809291908181526020018280546109b690611d93565b8015610a035780601f106109d857610100808354040283529160200191610a03565b820191906000526020600020905b8154815290600101906020018083116109e657829003601f168201915b5050505050905090565b600080610a18610d08565b90506000600160008373ffffffffffffffffffffffffffffffffffffffff1673ffffffffffffffffffffffffffffffffffffffff16815260200190815260200160002060008673ffffffffffffffffffffffffffffffffffffffff1673ffffffffffffffffffffffffffffffffffffffff16815260200190815260200160002054905083811015610ade576040517f08c379a0000000000000000000000000000000000000000000000000000000008152600401610ad590611bef565b60405180910390fd5b610aeb8286868403610d10565b60019250505092915050565b600080610b02610d08565b9050610b0f818585610f67565b600191505092915050565b6000600160008473ffffffffffffffffffffffffffffffffffffffff1673ffffffffffffffffffffffffffffffffffffffff16815260200190815260200160002060008373ffffffffffffffffffffffffffffffffffffffff1673ffffffffffffffffffffffffffffffffffffffff16815260200190815260200160002054905092915050565b655af3107a4000341015610bea576040517f08c379a0000000000000000000000000000000000000000000000000000000008152600401610be190611bcf565b60405180910390fd5b610bf481346111e8565b3460066000828254610c069190611c81565b9250508190555050565b610c18610d08565b73ffffffffffffffffffffffffffffffffffffffff16610c36610951565b73ffffffffffffffffffffffffffffffffffffffff1614610c8c576040517f08c379a0000000000000000000000000000000000000000000000000000000008152600401610c8390611b4f565b60405180910390fd5b600073ffffffffffffffffffffffffffffffffffffffff168173ffffffffffffffffffffffffffffffffffffffff161415610cfc576040517f08c379a0000000000000000000000000000000000000000000000000000000008152600401610cf390611acf565b60405180910390fd5b610d058161151f565b50565b600033905090565b600073ffffffffffffffffffffffffffffffffffffffff168373ffffffffffffffffffffffffffffffffffffffff161415610d80576040517f08c379a0000000000000000000000000000000000000000000000000000000008152600401610d7790611baf565b60405180910390fd5b600073ffffffffffffffffffffffffffffffffffffffff168273ffffffffffffffffffffffffffffffffffffffff161415610df0576040517f08c379a0000000000000000000000000000000000000000000000000000000008152600401610de790611aef565b60405180910390fd5b80600160008573ffffffffffffffffffffffffffffffffffffffff1673ffffffffffffffffffffffffffffffffffffffff16815260200190815260200160002060008473ffffffffffffffffffffffffffffffffffffffff1673ffffffffffffffffffffffffffffffffffffffff168152602001908152602001600020819055508173ffffffffffffffffffffffffffffffffffffffff168373ffffffffffffffffffffffffffffffffffffffff167f8c5be1e5ebec7d5bd14f71427d1e84f3dd0314c0f7b2291e5b200ac8c7c3b92583604051610ece9190611c2f565b60405180910390a3505050565b6000610ee78484610b1a565b90507fffffffffffffffffffffffffffffffffffffffffffffffffffffffffffffffff8114610f615781811015610f53576040517f08c379a0000000000000000000000000000000000000000000000000000000008152600401610f4a90611b0f565b60405180910390fd5b610f608484848403610d10565b5b50505050565b600073ffffffffffffffffffffffffffffffffffffffff168373ffffffffffffffffffffffffffffffffffffffff161415610fd7576040517f08c379a0000000000000000000000000000000000000000000000000000000008152600401610fce90611b8f565b60405180910390fd5b600073ffffffffffffffffffffffffffffffffffffffff168273ffffffffffffffffffffffffffffffffffffffff161415611047576040517f08c379a000000000000000000000000000000000000000000000000000000000815260040161103e90611a2f565b60405180910390fd5b6110528383836115e5565b60008060008573ffffffffffffffffffffffffffffffffffffffff1673ffffffffffffffffffffffffffffffffffffffff168152602001908152602001600020549050818110156110d8576040517f08c379a00000000000000000000000000000000000000000000000000000000081526004016110cf90611b2f565b60405180910390fd5b8181036000808673ffffffffffffffffffffffffffffffffffffffff1673ffffffffffffffffffffffffffffffffffffffff16815260200190815260200160002081905550816000808573ffffffffffffffffffffffffffffffffffffffff1673ffffffffffffffffffffffffffffffffffffffff168152602001908152602001600020600082825461116b9190611c81565b925050819055508273ffffffffffffffffffffffffffffffffffffffff168473ffffffffffffffffffffffffffffffffffffffff167fddf252ad1be2c89b69c2b068fc378daa952ba7f163c4a11628f55a4df523b3ef846040516111cf9190611c2f565b60405180910390a36111e28484846115ea565b50505050565b600073ffffffffffffffffffffffffffffffffffffffff168273ffffffffffffffffffffffffffffffffffffffff161415611258576040517f08c379a000000000000000000000000000000000000000000000000000000000815260040161124f90611c0f565b60405180910390fd5b611264600083836115e5565b80600260008282546112769190611c81565b92505081905550806000808473ffffffffffffffffffffffffffffffffffffffff1673ffffffffffffffffffffffffffffffffffffffff16815260200190815260200160002060008282546112cb9190611c81565b925050819055508173ffffffffffffffffffffffffffffffffffffffff16600073ffffffffffffffffffffffffffffffffffffffff167fddf252ad1be2c89b69c2b068fc378daa952ba7f163c4a11628f55a4df523b3ef836040516113309190611c2f565b60405180910390a3611344600083836115ea565b5050565b600073ffffffffffffffffffffffffffffffffffffffff168273ffffffffffffffffffffffffffffffffffffffff1614156113b8576040517f08c379a00000000000000000000000000000000000000000000000000000000081526004016113af90611b6f565b60405180910390fd5b6113c4826000836115e5565b60008060008473ffffffffffffffffffffffffffffffffffffffff1673ffffffffffffffffffffffffffffffffffffffff1681526020019081526020016000205490508181101561144a576040517f08c379a000000000000000000000000000000000000000000000000000000000815260040161144190611a8f565b60405180910390fd5b8181036000808573ffffffffffffffffffffffffffffffffffffffff1673ffffffffffffffffffffffffffffffffffffffff1681526020019081526020016000208190555081600260008282546114a19190611cd7565b92505081905550600073ffffffffffffffffffffffffffffffffffffffff168373ffffffffffffffffffffffffffffffffffffffff167fddf252ad1be2c89b69c2b068fc378daa952ba7f163c4a11628f55a4df523b3ef846040516115069190611c2f565b60405180910390a361151a836000846115ea565b505050565b6000600560009054906101000a900473ffffffffffffffffffffffffffffffffffffffff16905081600560006101000a81548173ffffffffffffffffffffffffffffffffffffffff021916908373ffffffffffffffffffffffffffffffffffffffff1602179055508173ffffffffffffffffffffffffffffffffffffffff168173ffffffffffffffffffffffffffffffffffffffff167f8be0079c531659141344cd1fd0a4f28419497f9722a3daafe3b4186f6b6457e060405160405180910390a35050565b505050565b505050565b6000813590506115fe81612240565b92915050565b60008135905061161381612257565b92915050565b60006020828403121561162b57600080fd5b6000611639848285016115ef565b91505092915050565b6000806040838503121561165557600080fd5b6000611663858286016115ef565b9250506020611674858286016115ef565b9150509250929050565b60008060006060848603121561169357600080fd5b60006116a1868287016115ef565b93505060206116b2868287016115ef565b92505060406116c386828701611604565b9150509250925092565b600080604083850312156116e057600080fd5b60006116ee858286016115ef565b92505060206116ff85828601611604565b9150509250929050565b60006020828403121561171b57600080fd5b600061172984828501611604565b91505092915050565b61173b81611d0b565b82525050565b61174a81611d1d565b82525050565b600061175b82611c65565b6117658185611c70565b9350611775818560208601611d60565b61177e81611e23565b840191505092915050565b6000611796602383611c70565b91506117a182611e34565b604082019050919050565b60006117b9602283611c70565b91506117c482611e83565b604082019050919050565b60006117dc601e83611c70565b91506117e782611ed2565b602082019050919050565b60006117ff602283611c70565b915061180a82611efb565b604082019050919050565b6000611822601c83611c70565b915061182d82611f4a565b602082019050919050565b6000611845602683611c70565b915061185082611f73565b604082019050919050565b6000611868602283611c70565b915061187382611fc2565b604082019050919050565b600061188b601d83611c70565b915061189682612011565b602082019050919050565b60006118ae602683611c70565b91506118b98261203a565b604082019050919050565b60006118d1602083611c70565b91506118dc82612089565b602082019050919050565b60006118f4602183611c70565b91506118ff826120b2565b604082019050919050565b6000611917602583611c70565b915061192282612101565b604082019050919050565b600061193a602483611c70565b915061194582612150565b604082019050919050565b600061195d601f83611c70565b91506119688261219f565b602082019050919050565b6000611980602583611c70565b915061198b826121c8565b604082019050919050565b60006119a3601f83611c70565b91506119ae82612217565b602082019050919050565b6119c281611d49565b82525050565b6119d181611d53565b82525050565b60006020820190506119ec6000830184611732565b92915050565b6000602082019050611a076000830184611741565b92915050565b60006020820190508181036000830152611a278184611750565b905092915050565b60006020820190508181036000830152611a4881611789565b9050919050565b60006020820190508181036000830152611a68816117ac565b9050919050565b60006020820190508181036000830152611a88816117cf565b9050919050565b60006020820190508181036000830152611aa8816117f2565b9050919050565b60006020820190508181036000830152611ac881611815565b9050919050565b60006020820190508181036000830152611ae881611838565b9050919050565b60006020820190508181036000830152611b088161185b565b9050919050565b60006020820190508181036000830152611b288161187e565b9050919050565b60006020820190508181036000830152611b48816118a1565b9050919050565b60006020820190508181036000830152611b68816118c4565b9050919050565b60006020820190508181036000830152611b88816118e7565b9050919050565b60006020820190508181036000830152611ba88161190a565b9050919050565b60006020820190508181036000830152611bc88161192d565b9050919050565b60006020820190508181036000830152611be881611950565b9050919050565b60006020820190508181036000830152611c0881611973565b9050919050565b60006020820190508181036000830152611c2881611996565b9050919050565b6000602082019050611c4460008301846119b9565b92915050565b6000602082019050611c5f60008301846119c8565b92915050565b600081519050919050565b600082825260208201905092915050565b6000611c8c82611d49565b9150611c9783611d49565b9250827fffffffffffffffffffffffffffffffffffffffffffffffffffffffffffffffff03821115611ccc57611ccb611dc5565b5b828201905092915050565b6000611ce282611d49565b9150611ced83611d49565b925082821015611d0057611cff611dc5565b5b828203905092915050565b6000611d1682611d29565b9050919050565b60008115159050919050565b600073ffffffffffffffffffffffffffffffffffffffff82169050919050565b6000819050919050565b600060ff82169050919050565b60005b83811015611d7e578082015181840152602081019050611d63565b83811115611d8d576000848401525b50505050565b60006002820490506001821680611dab57607f821691505b60208210811415611dbf57611dbe611df4565b5b50919050565b7f4e487b7100000000000000000000000000000000000000000000000000000000600052601160045260246000fd5b7f4e487b7100000000000000000000000000000000000000000000000000000000600052602260045260246000fd5b6000601f19601f8301169050919050565b7f45524332303a207472616e7366657220746f20746865207a65726f206164647260008201527f6573730000000000000000000000000000000000000000000000000000000000602082015250565b7f496e73756666696369656e742066756e647320696e207468652072657365727660008201527f652e000000000000000000000000000000000000000000000000000000000000602082015250565b7f496e73756666696369656e7420746f6b656e7320696e2077616c6c65742e0000600082015250565b7f45524332303a206275726e20616d6f756e7420657863656564732062616c616e60008201527f6365000000000000000000000000000000000000000000000000000000000000602082015250565b7f4d696e696d756d2073616c6573206f6620302e30303031204a4f542e00000000600082015250565b7f4f776e61626c653a206e6577206f776e657220697320746865207a65726f206160008201527f6464726573730000000000000000000000000000000000000000000000000000602082015250565b7f45524332303a20617070726f766520746f20746865207a65726f20616464726560008201527f7373000000000000000000000000000000000000000000000000000000000000602082015250565b7f45524332303a20696e73756666696369656e7420616c6c6f77616e6365000000600082015250565b7f45524332303a207472616e7366657220616d6f756e742065786365656473206260008201527f616c616e63650000000000000000000000000000000000000000000000000000602082015250565b7f4f776e61626c653a2063616c6c6572206973206e6f7420746865206f776e6572600082015250565b7f45524332303a206275726e2066726f6d20746865207a65726f2061646472657360008201527f7300000000000000000000000000000000000000000000000000000000000000602082015250565b7f45524332303a207472616e736665722066726f6d20746865207a65726f20616460008201527f6472657373000000000000000000000000000000000000000000000000000000602082015250565b7f45524332303a20617070726f76652066726f6d20746865207a65726f2061646460008201527f7265737300000000000000000000000000000000000000000000000000000000602082015250565b7f4d696e696d756d207075726368617365206f6620302e30303031204a4f542e00600082015250565b7f45524332303a2064656372656173656420616c6c6f77616e63652062656c6f7760008201527f207a65726f000000000000000000000000000000000000000000000000000000602082015250565b7f45524332303a206d696e7420746f20746865207a65726f206164647265737300600082015250565b61224981611d0b565b811461225457600080fd5b50565b61226081611d49565b811461226b57600080fd5b5056fea264697066735822122016f4b1779a8eab10fcb415576f752fb89f0ea701f08a18bda631d9dc7f1a2d9364736f6c63430008040033",
  "linkReferences": {},
  "deployedLinkReferences": {}
}