{
  "_format": "hh-sol-artifact-1",
  "contractName": "Roulette",
  "sourceName": "contracts/Roulette.sol",
  "abi": [
    {
      "inputs": [
        {
          "internalType": "contract JokeToken",
          "name": "_jokeToken",
          "type": "address"
        },
        {
          "internalType": "address",
          "name": "can1",
          "type": "address"
        },
        {
          "internalType": "uint256",
          "name": "amount",
          "type": "uint256"
        }
      ],
      "stateMutability": "nonpayable",
      "type": "constructor"
    },
    {
      "inputs": [],
      "name": "candidate1",
      "outputs": [
        {
          "internalType": "address",
          "name": "",
          "type": "address"
        }
      ],
      "stateMutability": "view",
      "type": "function"
    },
    {
      "inputs": [],
      "name": "candidate2",
      "outputs": [
        {
          "internalType": "address",
          "name": "",
          "type": "address"
        }
      ],
      "stateMutability": "view",
      "type": "function"
    },
    {
      "inputs": [
        {
          "internalType": "address",
          "name": "",
          "type": "address"
        }
      ],
      "name": "candidateScores",
      "outputs": [
        {
          "internalType": "uint8",
          "name": "",
          "type": "uint8"
        }
      ],
      "stateMutability": "view",
      "type": "function"
    },
    {
      "inputs": [],
      "name": "fundToken",
      "outputs": [],
      "stateMutability": "nonpayable",
      "type": "function"
    },
    {
      "inputs": [],
      "name": "gambleAmount",
      "outputs": [
        {
          "internalType": "uint256",
          "name": "",
          "type": "uint256"
        }
      ],
      "stateMutability": "view",
      "type": "function"
    },
    {
      "inputs": [],
      "name": "getWinner",
      "outputs": [
        {
          "internalType": "address",
          "name": "",
          "type": "address"
        }
      ],
      "stateMutability": "view",
      "type": "function"
    },
    {
      "inputs": [],
      "name": "hasCompetitor",
      "outputs": [
        {
          "internalType": "bool",
          "name": "",
          "type": "bool"
        }
      ],
      "stateMutability": "view",
      "type": "function"
    },
    {
      "inputs": [],
      "name": "jokeToken",
      "outputs": [
        {
          "internalType": "contract JokeToken",
          "name": "",
          "type": "address"
        }
      ],
      "stateMutability": "view",
      "type": "function"
    },
    {
      "inputs": [],
      "name": "payWinner",
      "outputs": [],
      "stateMutability": "nonpayable",
      "type": "function"
    },
    {
      "inputs": [],
      "name": "play",
      "outputs": [],
      "stateMutability": "nonpayable",
      "type": "function"
    },
    {
      "inputs": [],
      "name": "result1",
      "outputs": [
        {
          "internalType": "uint8",
          "name": "",
          "type": "uint8"
        }
      ],
      "stateMutability": "view",
      "type": "function"
    },
    {
      "inputs": [],
      "name": "result2",
      "outputs": [
        {
          "internalType": "uint8",
          "name": "",
          "type": "uint8"
        }
      ],
      "stateMutability": "view",
      "type": "function"
    },
    {
      "inputs": [
        {
          "internalType": "address",
          "name": "can2",
          "type": "address"
        }
      ],
      "name": "setCompetitor",
      "outputs": [],
      "stateMutability": "nonpayable",
      "type": "function"
    }
  ],
  "bytecode": "0x60806040526064600560006101000a81548160ff021916908360ff1602179055506064600560016101000a81548160ff021916908360ff1602179055503480156200004957600080fd5b50604051620014ef380380620014ef83398181016040528101906200006f919062000145565b826000806101000a81548173ffffffffffffffffffffffffffffffffffffffff021916908373ffffffffffffffffffffffffffffffffffffffff16021790555081600260006101000a81548173ffffffffffffffffffffffffffffffffffffffff021916908373ffffffffffffffffffffffffffffffffffffffff160217905550806004819055505050506200023b565b6000815190506200011181620001ed565b92915050565b600081519050620001288162000207565b92915050565b6000815190506200013f8162000221565b92915050565b6000806000606084860312156200015b57600080fd5b60006200016b8682870162000117565b93505060206200017e8682870162000100565b925050604062000191868287016200012e565b9150509250925092565b6000620001a882620001c3565b9050919050565b6000620001bc826200019b565b9050919050565b600073ffffffffffffffffffffffffffffffffffffffff82169050919050565b6000819050919050565b620001f8816200019b565b81146200020457600080fd5b50565b6200021281620001af565b81146200021e57600080fd5b50565b6200022c81620001e3565b81146200023857600080fd5b50565b6112a4806200024b6000396000f3fe608060405234801561001057600080fd5b50600436106100cf5760003560e01c80637b0e697f1161008c578063b3b8b7d711610066578063b3b8b7d7146101cc578063be71248a146101ea578063dba36843146101f4578063f60dbf8914610212576100cf565b80637b0e697f146101865780638e7ea5b2146101a457806393e84cd9146101c2576100cf565b806301243fce146100d457806317ca5481146100f257806350adcdb7146101105780635b57014c1461011a57806360d1081314610138578063757fff2414610156575b600080fd5b6100dc61022e565b6040516100e99190610e36565b60405180910390f35b6100fa610254565b6040516101079190610fab565b60405180910390f35b610118610267565b005b6101226104c1565b60405161012f9190610e36565b60405180910390f35b6101406104e7565b60405161014d9190610fab565b60405180910390f35b610170600480360381019061016b9190610ce4565b6104fa565b60405161017d9190610fab565b60405180910390f35b61018e61051a565b60405161019b9190610ef5565b60405180910390f35b6101ac61053e565b6040516101b99190610e36565b60405180910390f35b6101ca610850565b005b6101d46108b1565b6040516101e19190610eda565b60405180910390f35b6101f261090a565b005b6101fc610c0a565b6040516102099190610f90565b60405180910390f35b61022c60048036038101906102279190610ce4565b610c10565b005b600260009054906101000a900473ffffffffffffffffffffffffffffffffffffffff1681565b600560019054906101000a900460ff1681565b60008054906101000a900473ffffffffffffffffffffffffffffffffffffffff1673ffffffffffffffffffffffffffffffffffffffff1663095ea7b3306004546040518363ffffffff1660e01b81526004016102c4929190610eb1565b602060405180830381600087803b1580156102de57600080fd5b505af11580156102f2573d6000803e3d6000fd5b505050506040513d601f19601f820116820180604052508101906103169190610d0d565b5060008060009054906101000a900473ffffffffffffffffffffffffffffffffffffffff1673ffffffffffffffffffffffffffffffffffffffff1663dd62ed3e33306040518363ffffffff1660e01b8152600401610375929190610e51565b60206040518083038186803b15801561038d57600080fd5b505afa1580156103a1573d6000803e3d6000fd5b505050506040513d601f19601f820116820180604052508101906103c59190610d36565b905060045481101561040c576040517f08c379a000000000000000000000000000000000000000000000000000000000815260040161040390610f70565b60405180910390fd5b60008054906101000a900473ffffffffffffffffffffffffffffffffffffffff1673ffffffffffffffffffffffffffffffffffffffff166323b872dd33306004546040518463ffffffff1660e01b815260040161046b93929190610e7a565b602060405180830381600087803b15801561048557600080fd5b505af1158015610499573d6000803e3d6000fd5b505050506040513d601f19601f820116820180604052508101906104bd9190610d0d565b5050565b600360009054906101000a900473ffffffffffffffffffffffffffffffffffffffff1681565b600560009054906101000a900460ff1681565b60016020528060005260406000206000915054906101000a900460ff1681565b60008054906101000a900473ffffffffffffffffffffffffffffffffffffffff1681565b60006064600560009054906101000a900460ff1660ff161415610596576040517f08c379a000000000000000000000000000000000000000000000000000000000815260040161058d90610f10565b60405180910390fd5b6064600560019054906101000a900460ff1660ff1614156105ec576040517f08c379a00000000000000000000000000000000000000000000000000000000081526004016105e390610f30565b60405180910390fd5b60008060016000600260009054906101000a900473ffffffffffffffffffffffffffffffffffffffff1673ffffffffffffffffffffffffffffffffffffffff1673ffffffffffffffffffffffffffffffffffffffff16815260200190815260200160002060009054906101000a900460ff1660ff16146106da5760016000600260009054906101000a900473ffffffffffffffffffffffffffffffffffffffff1673ffffffffffffffffffffffffffffffffffffffff1673ffffffffffffffffffffffffffffffffffffffff16815260200190815260200160002060009054906101000a900460ff166106dd565b60255b905060008060016000600360009054906101000a900473ffffffffffffffffffffffffffffffffffffffff1673ffffffffffffffffffffffffffffffffffffffff1673ffffffffffffffffffffffffffffffffffffffff16815260200190815260200160002060009054906101000a900460ff1660ff16146107cd5760016000600360009054906101000a900473ffffffffffffffffffffffffffffffffffffffff1673ffffffffffffffffffffffffffffffffffffffff1673ffffffffffffffffffffffffffffffffffffffff16815260200190815260200160002060009054906101000a900460ff166107d0565b60255b90508060ff168260ff16111561080c57600260009054906101000a900473ffffffffffffffffffffffffffffffffffffffff169250505061084d565b8160ff168160ff16111561084657600360009054906101000a900473ffffffffffffffffffffffffffffffffffffffff169250505061084d565b6000925050505b90565b610858610c9c565b600160003373ffffffffffffffffffffffffffffffffffffffff1673ffffffffffffffffffffffffffffffffffffffff16815260200190815260200160002060006101000a81548160ff021916908360ff160217905550565b60008073ffffffffffffffffffffffffffffffffffffffff16600360009054906101000a900473ffffffffffffffffffffffffffffffffffffffff1673ffffffffffffffffffffffffffffffffffffffff161415905090565b600061091461053e565b9050600073ffffffffffffffffffffffffffffffffffffffff168173ffffffffffffffffffffffffffffffffffffffff161415610988576064600560006101000a81548160ff021916908360ff1602179055506064600560016101000a81548160ff021916908360ff160217905550610c07565b60006064605f600260045461099d9190611008565b6109a79190611008565b6109b19190610fd7565b905060008054906101000a900473ffffffffffffffffffffffffffffffffffffffff1673ffffffffffffffffffffffffffffffffffffffff1663095ea7b330836040518363ffffffff1660e01b8152600401610a0e929190610eb1565b602060405180830381600087803b158015610a2857600080fd5b505af1158015610a3c573d6000803e3d6000fd5b505050506040513d601f19601f82011682018060405250810190610a609190610d0d565b5060008060009054906101000a900473ffffffffffffffffffffffffffffffffffffffff1673ffffffffffffffffffffffffffffffffffffffff1663dd62ed3e33306040518363ffffffff1660e01b8152600401610abf929190610e51565b60206040518083038186803b158015610ad757600080fd5b505afa158015610aeb573d6000803e3d6000fd5b505050506040513d601f19601f82011682018060405250810190610b0f9190610d36565b905081811015610b54576040517f08c379a0000000000000000000000000000000000000000000000000000000008152600401610b4b90610f70565b60405180910390fd5b60008054906101000a900473ffffffffffffffffffffffffffffffffffffffff1673ffffffffffffffffffffffffffffffffffffffff166323b872dd3085856040518463ffffffff1660e01b8152600401610bb193929190610e7a565b602060405180830381600087803b158015610bcb57600080fd5b505af1158015610bdf573d6000803e3d6000fd5b505050506040513d601f19601f82011682018060405250810190610c039190610d0d565b5050505b50565b60045481565b610c186108b1565b15610c58576040517f08c379a0000000000000000000000000000000000000000000000000000000008152600401610c4f90610f50565b60405180910390fd5b80600360006101000a81548173ffffffffffffffffffffffffffffffffffffffff021916908373ffffffffffffffffffffffffffffffffffffffff16021790555050565b60006024905090565b600081359050610cb481611229565b92915050565b600081519050610cc981611240565b92915050565b600081519050610cde81611257565b92915050565b600060208284031215610cf657600080fd5b6000610d0484828501610ca5565b91505092915050565b600060208284031215610d1f57600080fd5b6000610d2d84828501610cba565b91505092915050565b600060208284031215610d4857600080fd5b6000610d5684828501610ccf565b91505092915050565b610d6881611062565b82525050565b610d7781611074565b82525050565b610d86816110b7565b82525050565b6000610d99602483610fc6565b9150610da482611139565b604082019050919050565b6000610dbc602483610fc6565b9150610dc782611188565b604082019050919050565b6000610ddf601983610fc6565b9150610dea826111d7565b602082019050919050565b6000610e02601a83610fc6565b9150610e0d82611200565b602082019050919050565b610e21816110a0565b82525050565b610e30816110aa565b82525050565b6000602082019050610e4b6000830184610d5f565b92915050565b6000604082019050610e666000830185610d5f565b610e736020830184610d5f565b9392505050565b6000606082019050610e8f6000830186610d5f565b610e9c6020830185610d5f565b610ea96040830184610e18565b949350505050565b6000604082019050610ec66000830185610d5f565b610ed36020830184610e18565b9392505050565b6000602082019050610eef6000830184610d6e565b92915050565b6000602082019050610f0a6000830184610d7d565b92915050565b60006020820190508181036000830152610f2981610d8c565b9050919050565b60006020820190508181036000830152610f4981610daf565b9050919050565b60006020820190508181036000830152610f6981610dd2565b9050919050565b60006020820190508181036000830152610f8981610df5565b9050919050565b6000602082019050610fa56000830184610e18565b92915050565b6000602082019050610fc06000830184610e27565b92915050565b600082825260208201905092915050565b6000610fe2826110a0565b9150610fed836110a0565b925082610ffd57610ffc61110a565b5b828204905092915050565b6000611013826110a0565b915061101e836110a0565b9250817fffffffffffffffffffffffffffffffffffffffffffffffffffffffffffffffff0483118215151615611057576110566110db565b5b828202905092915050565b600061106d82611080565b9050919050565b60008115159050919050565b600073ffffffffffffffffffffffffffffffffffffffff82169050919050565b6000819050919050565b600060ff82169050919050565b60006110c2826110c9565b9050919050565b60006110d482611080565b9050919050565b7f4e487b7100000000000000000000000000000000000000000000000000000000600052601160045260246000fd5b7f4e487b7100000000000000000000000000000000000000000000000000000000600052601260045260246000fd5b7f43616e64696461746520312068617665206e6f74207370756e2074686520776860008201527f65656c2e00000000000000000000000000000000000000000000000000000000602082015250565b7f43616e64696461746520322068617665206e6f74207370756e2074686520776860008201527f65656c2e00000000000000000000000000000000000000000000000000000000602082015250565b7f436f6d70657469746f7220616c72656164792065786973742e00000000000000600082015250565b7f436865636b2074686520746f6b656e20616c6c6f77616e63652e000000000000600082015250565b61123281611062565b811461123d57600080fd5b50565b61124981611074565b811461125457600080fd5b50565b611260816110a0565b811461126b57600080fd5b5056fea264697066735822122039a94aa5339a06ec823801c534657e55076af24e4ce4f8507881a291c8d064f964736f6c63430008040033",
  "linkReferences": {},
  "deployedLinkReferences": {}
}